{
	"src/GroceryShop.sol": {
		"GroceryShop": {
			"abi": [
				{
					"inputs": [
						{
							"internalType": "uint256",
							"name": "_breadCount",
							"type": "uint256"
						},
						{
							"internalType": "uint256",
							"name": "_eggCount",
							"type": "uint256"
						},
						{
							"internalType": "uint256",
							"name": "_jamCount",
							"type": "uint256"
						}
					],
					"stateMutability": "nonpayable",
					"type": "constructor"
				},
				{
					"anonymous": false,
					"inputs": [
						{
							"indexed": false,
							"internalType": "enum GroceryShop.GroceryType",
							"name": "groceryType",
							"type": "uint8"
						},
						{
							"indexed": false,
							"internalType": "uint256",
							"name": "units",
							"type": "uint256"
						}
					],
					"name": "Added",
					"type": "event"
				},
				{
					"anonymous": false,
					"inputs": [
						{
							"indexed": false,
							"internalType": "uint256",
							"name": "purchaseId",
							"type": "uint256"
						},
						{
							"indexed": false,
							"internalType": "enum GroceryShop.GroceryType",
							"name": "groceryType",
							"type": "uint8"
						},
						{
							"indexed": false,
							"internalType": "uint256",
							"name": "units",
							"type": "uint256"
						}
					],
					"name": "Bought",
					"type": "event"
				},
				{
					"inputs": [
						{
							"internalType": "enum GroceryShop.GroceryType",
							"name": "_type",
							"type": "uint8"
						},
						{
							"internalType": "uint256",
							"name": "_units",
							"type": "uint256"
						}
					],
					"name": "add",
					"outputs": [],
					"stateMutability": "nonpayable",
					"type": "function"
				},
				{
					"inputs": [
						{
							"internalType": "enum GroceryShop.GroceryType",
							"name": "_type",
							"type": "uint8"
						},
						{
							"internalType": "uint256",
							"name": "_units",
							"type": "uint256"
						}
					],
					"name": "buy",
					"outputs": [],
					"stateMutability": "payable",
					"type": "function"
				},
				{
					"inputs": [
						{
							"internalType": "uint256",
							"name": "_purchaseId",
							"type": "uint256"
						}
					],
					"name": "cashRegister",
					"outputs": [
						{
							"internalType": "address",
							"name": "",
							"type": "address"
						},
						{
							"internalType": "enum GroceryShop.GroceryType",
							"name": "",
							"type": "uint8"
						},
						{
							"internalType": "uint256",
							"name": "",
							"type": "uint256"
						}
					],
					"stateMutability": "view",
					"type": "function"
				},
				{
					"inputs": [],
					"name": "withdraw",
					"outputs": [],
					"stateMutability": "payable",
					"type": "function"
				}
			],
			"devdoc": {
				"kind": "dev",
				"methods": {},
				"version": 1
			},
			"evm": {
				"assembly": "    /* \"src/GroceryShop.sol\":58:2377  contract GroceryShop {... */\n  mstore(0x40, 0x80)\n    /* \"src/GroceryShop.sol\":568:768  constructor(uint256 _breadCount, uint256 _eggCount, uint256 _jamCount) {... */\n  callvalue\n  dup1\n  iszero\n  tag_1\n  jumpi\n  0x00\n  dup1\n  revert\ntag_1:\n  pop\n  mload(0x40)\n  sub(codesize, bytecodeSize)\n  dup1\n  bytecodeSize\n  dup4\n  codecopy\n  dup2\n  dup2\n  add\n  0x40\n  mstore\n  dup2\n  add\n  swap1\n  tag_2\n  swap2\n  swap1\n  tag_3\n  jump\t// in\ntag_2:\n    /* \"src/GroceryShop.sol\":662:673  _breadCount */\n  dup3\n    /* \"src/GroceryShop.sol\":649:659  breadCount */\n  0x00\n    /* \"src/GroceryShop.sol\":649:673  breadCount = _breadCount */\n  dup2\n  swap1\n  sstore\n  pop\n    /* \"src/GroceryShop.sol\":694:703  _eggCount */\n  dup2\n    /* \"src/GroceryShop.sol\":683:691  eggCount */\n  0x01\n    /* \"src/GroceryShop.sol\":683:703  eggCount = _eggCount */\n  dup2\n  swap1\n  sstore\n  pop\n    /* \"src/GroceryShop.sol\":724:733  _jamCount */\n  dup1\n    /* \"src/GroceryShop.sol\":713:721  jamCount */\n  0x02\n    /* \"src/GroceryShop.sol\":713:733  jamCount = _jamCount */\n  dup2\n  swap1\n  sstore\n  pop\n    /* \"src/GroceryShop.sol\":751:761  msg.sender */\n  caller\n    /* \"src/GroceryShop.sol\":743:748  owner */\n  0x04\n  0x00\n    /* \"src/GroceryShop.sol\":743:761  owner = msg.sender */\n  0x0100\n  exp\n  dup2\n  sload\n  dup2\n  0xffffffffffffffffffffffffffffffffffffffff\n  mul\n  not\n  and\n  swap1\n  dup4\n  0xffffffffffffffffffffffffffffffffffffffff\n  and\n  mul\n  or\n  swap1\n  sstore\n  pop\n    /* \"src/GroceryShop.sol\":568:768  constructor(uint256 _breadCount, uint256 _eggCount, uint256 _jamCount) {... */\n  pop\n  pop\n  pop\n    /* \"src/GroceryShop.sol\":58:2377  contract GroceryShop {... */\n  jump(tag_6)\n    /* \"#utility.yul\":88:205   */\ntag_8:\n    /* \"#utility.yul\":197:198   */\n  0x00\n    /* \"#utility.yul\":194:195   */\n  dup1\n    /* \"#utility.yul\":187:199   */\n  revert\n    /* \"#utility.yul\":334:411   */\ntag_10:\n    /* \"#utility.yul\":371:378   */\n  0x00\n    /* \"#utility.yul\":400:405   */\n  dup2\n    /* \"#utility.yul\":389:405   */\n  swap1\n  pop\n    /* \"#utility.yul\":334:411   */\n  swap2\n  swap1\n  pop\n  jump\t// out\n    /* \"#utility.yul\":417:539   */\ntag_11:\n    /* \"#utility.yul\":490:514   */\n  tag_19\n    /* \"#utility.yul\":508:513   */\n  dup2\n    /* \"#utility.yul\":490:514   */\n  tag_10\n  jump\t// in\ntag_19:\n    /* \"#utility.yul\":483:488   */\n  dup2\n    /* \"#utility.yul\":480:515   */\n  eq\n    /* \"#utility.yul\":470:533   */\n  tag_20\n  jumpi\n    /* \"#utility.yul\":529:530   */\n  0x00\n    /* \"#utility.yul\":526:527   */\n  dup1\n    /* \"#utility.yul\":519:531   */\n  revert\n    /* \"#utility.yul\":470:533   */\ntag_20:\n    /* \"#utility.yul\":417:539   */\n  pop\n  jump\t// out\n    /* \"#utility.yul\":545:688   */\ntag_12:\n    /* \"#utility.yul\":602:607   */\n  0x00\n    /* \"#utility.yul\":633:639   */\n  dup2\n    /* \"#utility.yul\":627:640   */\n  mload\n    /* \"#utility.yul\":618:640   */\n  swap1\n  pop\n    /* \"#utility.yul\":649:682   */\n  tag_22\n    /* \"#utility.yul\":676:681   */\n  dup2\n    /* \"#utility.yul\":649:682   */\n  tag_11\n  jump\t// in\ntag_22:\n    /* \"#utility.yul\":545:688   */\n  swap3\n  swap2\n  pop\n  pop\n  jump\t// out\n    /* \"#utility.yul\":694:1357   */\ntag_3:\n    /* \"#utility.yul\":782:788   */\n  0x00\n    /* \"#utility.yul\":790:796   */\n  dup1\n    /* \"#utility.yul\":798:804   */\n  0x00\n    /* \"#utility.yul\":847:849   */\n  0x60\n    /* \"#utility.yul\":835:844   */\n  dup5\n    /* \"#utility.yul\":826:833   */\n  dup7\n    /* \"#utility.yul\":822:845   */\n  sub\n    /* \"#utility.yul\":818:850   */\n  slt\n    /* \"#utility.yul\":815:934   */\n  iszero\n  tag_24\n  jumpi\n    /* \"#utility.yul\":853:932   */\n  tag_25\n  tag_8\n  jump\t// in\ntag_25:\n    /* \"#utility.yul\":815:934   */\ntag_24:\n    /* \"#utility.yul\":973:974   */\n  0x00\n    /* \"#utility.yul\":998:1062   */\n  tag_26\n    /* \"#utility.yul\":1054:1061   */\n  dup7\n    /* \"#utility.yul\":1045:1051   */\n  dup3\n    /* \"#utility.yul\":1034:1043   */\n  dup8\n    /* \"#utility.yul\":1030:1052   */\n  add\n    /* \"#utility.yul\":998:1062   */\n  tag_12\n  jump\t// in\ntag_26:\n    /* \"#utility.yul\":988:1062   */\n  swap4\n  pop\n    /* \"#utility.yul\":944:1072   */\n  pop\n    /* \"#utility.yul\":1111:1113   */\n  0x20\n    /* \"#utility.yul\":1137:1201   */\n  tag_27\n    /* \"#utility.yul\":1193:1200   */\n  dup7\n    /* \"#utility.yul\":1184:1190   */\n  dup3\n    /* \"#utility.yul\":1173:1182   */\n  dup8\n    /* \"#utility.yul\":1169:1191   */\n  add\n    /* \"#utility.yul\":1137:1201   */\n  tag_12\n  jump\t// in\ntag_27:\n    /* \"#utility.yul\":1127:1201   */\n  swap3\n  pop\n    /* \"#utility.yul\":1082:1211   */\n  pop\n    /* \"#utility.yul\":1250:1252   */\n  0x40\n    /* \"#utility.yul\":1276:1340   */\n  tag_28\n    /* \"#utility.yul\":1332:1339   */\n  dup7\n    /* \"#utility.yul\":1323:1329   */\n  dup3\n    /* \"#utility.yul\":1312:1321   */\n  dup8\n    /* \"#utility.yul\":1308:1330   */\n  add\n    /* \"#utility.yul\":1276:1340   */\n  tag_12\n  jump\t// in\ntag_28:\n    /* \"#utility.yul\":1266:1340   */\n  swap2\n  pop\n    /* \"#utility.yul\":1221:1350   */\n  pop\n    /* \"#utility.yul\":694:1357   */\n  swap3\n  pop\n  swap3\n  pop\n  swap3\n  jump\t// out\n    /* \"src/GroceryShop.sol\":58:2377  contract GroceryShop {... */\ntag_6:\n  dataSize(sub_0)\n  dup1\n  dataOffset(sub_0)\n  0x00\n  codecopy\n  0x00\n  return\nstop\n\nsub_0: assembly {\n        /* \"src/GroceryShop.sol\":58:2377  contract GroceryShop {... */\n      mstore(0x40, 0x80)\n      jumpi(tag_1, lt(calldatasize, 0x04))\n      shr(0xe0, calldataload(0x00))\n      dup1\n      0x1b54ac80\n      eq\n      tag_2\n      jumpi\n      dup1\n      0x3ccfd60b\n      eq\n      tag_3\n      jumpi\n      dup1\n      0x62f791c0\n      eq\n      tag_4\n      jumpi\n      dup1\n      0x754a5a51\n      eq\n      tag_5\n      jumpi\n    tag_1:\n      0x00\n      dup1\n      revert\n        /* \"src/GroceryShop.sol\":774:1177  function add(GroceryType _type, uint _units) public {... */\n    tag_2:\n      callvalue\n      dup1\n      iszero\n      tag_6\n      jumpi\n      0x00\n      dup1\n      revert\n    tag_6:\n      pop\n      tag_7\n      0x04\n      dup1\n      calldatasize\n      sub\n      dup2\n      add\n      swap1\n      tag_8\n      swap2\n      swap1\n      tag_9\n      jump\t// in\n    tag_8:\n      tag_10\n      jump\t// in\n    tag_7:\n      stop\n        /* \"src/GroceryShop.sol\":2204:2375  function withdraw() public payable {... */\n    tag_3:\n      tag_11\n      tag_12\n      jump\t// in\n    tag_11:\n      stop\n        /* \"src/GroceryShop.sol\":1183:1880  function buy(GroceryType _type, uint _units) payable public {... */\n    tag_4:\n      tag_13\n      0x04\n      dup1\n      calldatasize\n      sub\n      dup2\n      add\n      swap1\n      tag_14\n      swap2\n      swap1\n      tag_9\n      jump\t// in\n    tag_14:\n      tag_15\n      jump\t// in\n    tag_13:\n      stop\n        /* \"src/GroceryShop.sol\":1886:2198  function cashRegister(uint _purchaseId) public view returns (address, GroceryShop.GroceryType, uint256) {... */\n    tag_5:\n      callvalue\n      dup1\n      iszero\n      tag_16\n      jumpi\n      0x00\n      dup1\n      revert\n    tag_16:\n      pop\n      tag_17\n      0x04\n      dup1\n      calldatasize\n      sub\n      dup2\n      add\n      swap1\n      tag_18\n      swap2\n      swap1\n      tag_19\n      jump\t// in\n    tag_18:\n      tag_20\n      jump\t// in\n    tag_17:\n      mload(0x40)\n      tag_21\n      swap4\n      swap3\n      swap2\n      swap1\n      tag_22\n      jump\t// in\n    tag_21:\n      mload(0x40)\n      dup1\n      swap2\n      sub\n      swap1\n      return\n        /* \"src/GroceryShop.sol\":774:1177  function add(GroceryType _type, uint _units) public {... */\n    tag_10:\n        /* \"src/GroceryShop.sol\":858:863  owner */\n      0x04\n      0x00\n      swap1\n      sload\n      swap1\n      0x0100\n      exp\n      swap1\n      div\n      0xffffffffffffffffffffffffffffffffffffffff\n      and\n        /* \"src/GroceryShop.sol\":844:863  msg.sender == owner */\n      0xffffffffffffffffffffffffffffffffffffffff\n      and\n        /* \"src/GroceryShop.sol\":844:854  msg.sender */\n      caller\n        /* \"src/GroceryShop.sol\":844:863  msg.sender == owner */\n      0xffffffffffffffffffffffffffffffffffffffff\n      and\n      eq\n        /* \"src/GroceryShop.sol\":836:891  require(msg.sender == owner, \"Only owner can call add\") */\n      tag_24\n      jumpi\n      mload(0x40)\n      0x08c379a000000000000000000000000000000000000000000000000000000000\n      dup2\n      mstore\n      0x04\n      add\n      tag_25\n      swap1\n      tag_26\n      jump\t// in\n    tag_25:\n      mload(0x40)\n      dup1\n      swap2\n      sub\n      swap1\n      revert\n    tag_24:\n        /* \"src/GroceryShop.sol\":914:931  GroceryType.Bread */\n      0x01\n        /* \"src/GroceryShop.sol\":905:931  _type == GroceryType.Bread */\n      0x03\n      dup2\n      gt\n      iszero\n      tag_27\n      jumpi\n      tag_28\n      tag_29\n      jump\t// in\n    tag_28:\n    tag_27:\n        /* \"src/GroceryShop.sol\":905:910  _type */\n      dup3\n        /* \"src/GroceryShop.sol\":905:931  _type == GroceryType.Bread */\n      0x03\n      dup2\n      gt\n      iszero\n      tag_30\n      jumpi\n      tag_31\n      tag_29\n      jump\t// in\n    tag_31:\n    tag_30:\n      sub\n        /* \"src/GroceryShop.sol\":901:1136  if (_type == GroceryType.Bread) {... */\n      tag_32\n      jumpi\n        /* \"src/GroceryShop.sol\":961:967  _units */\n      dup1\n        /* \"src/GroceryShop.sol\":947:957  breadCount */\n      0x00\n      dup1\n        /* \"src/GroceryShop.sol\":947:967  breadCount += _units */\n      dup3\n      dup3\n      sload\n      tag_33\n      swap2\n      swap1\n      tag_34\n      jump\t// in\n    tag_33:\n      swap3\n      pop\n      pop\n      dup2\n      swap1\n      sstore\n      pop\n        /* \"src/GroceryShop.sol\":901:1136  if (_type == GroceryType.Bread) {... */\n      jump(tag_35)\n    tag_32:\n        /* \"src/GroceryShop.sol\":997:1012  GroceryType.Egg */\n      0x02\n        /* \"src/GroceryShop.sol\":988:1012  _type == GroceryType.Egg */\n      0x03\n      dup2\n      gt\n      iszero\n      tag_36\n      jumpi\n      tag_37\n      tag_29\n      jump\t// in\n    tag_37:\n    tag_36:\n        /* \"src/GroceryShop.sol\":988:993  _type */\n      dup3\n        /* \"src/GroceryShop.sol\":988:1012  _type == GroceryType.Egg */\n      0x03\n      dup2\n      gt\n      iszero\n      tag_38\n      jumpi\n      tag_39\n      tag_29\n      jump\t// in\n    tag_39:\n    tag_38:\n      sub\n        /* \"src/GroceryShop.sol\":984:1136  if (_type == GroceryType.Egg) {... */\n      tag_40\n      jumpi\n        /* \"src/GroceryShop.sol\":1040:1046  _units */\n      dup1\n        /* \"src/GroceryShop.sol\":1028:1036  eggCount */\n      0x01\n      0x00\n        /* \"src/GroceryShop.sol\":1028:1046  eggCount += _units */\n      dup3\n      dup3\n      sload\n      tag_41\n      swap2\n      swap1\n      tag_34\n      jump\t// in\n    tag_41:\n      swap3\n      pop\n      pop\n      dup2\n      swap1\n      sstore\n      pop\n        /* \"src/GroceryShop.sol\":984:1136  if (_type == GroceryType.Egg) {... */\n      jump(tag_42)\n    tag_40:\n        /* \"src/GroceryShop.sol\":1076:1091  GroceryType.Jam */\n      0x03\n        /* \"src/GroceryShop.sol\":1067:1091  _type == GroceryType.Jam */\n      dup1\n      dup2\n      gt\n      iszero\n      tag_43\n      jumpi\n      tag_44\n      tag_29\n      jump\t// in\n    tag_44:\n    tag_43:\n        /* \"src/GroceryShop.sol\":1067:1072  _type */\n      dup3\n        /* \"src/GroceryShop.sol\":1067:1091  _type == GroceryType.Jam */\n      0x03\n      dup2\n      gt\n      iszero\n      tag_45\n      jumpi\n      tag_46\n      tag_29\n      jump\t// in\n    tag_46:\n    tag_45:\n      sub\n        /* \"src/GroceryShop.sol\":1063:1136  if (_type == GroceryType.Jam) {... */\n      tag_47\n      jumpi\n        /* \"src/GroceryShop.sol\":1119:1125  _units */\n      dup1\n        /* \"src/GroceryShop.sol\":1107:1115  jamCount */\n      0x02\n      0x00\n        /* \"src/GroceryShop.sol\":1107:1125  jamCount += _units */\n      dup3\n      dup3\n      sload\n      tag_48\n      swap2\n      swap1\n      tag_34\n      jump\t// in\n    tag_48:\n      swap3\n      pop\n      pop\n      dup2\n      swap1\n      sstore\n      pop\n        /* \"src/GroceryShop.sol\":1063:1136  if (_type == GroceryType.Jam) {... */\n    tag_47:\n        /* \"src/GroceryShop.sol\":984:1136  if (_type == GroceryType.Egg) {... */\n    tag_42:\n        /* \"src/GroceryShop.sol\":901:1136  if (_type == GroceryType.Bread) {... */\n    tag_35:\n        /* \"src/GroceryShop.sol\":1150:1170  Added(_type, _units) */\n      0x12e3bb38ec8cd1c6d62c88b77f475833a978b109219e896e6a5d49240d378de7\n        /* \"src/GroceryShop.sol\":1156:1161  _type */\n      dup3\n        /* \"src/GroceryShop.sol\":1163:1169  _units */\n      dup3\n        /* \"src/GroceryShop.sol\":1150:1170  Added(_type, _units) */\n      mload(0x40)\n      tag_49\n      swap3\n      swap2\n      swap1\n      tag_50\n      jump\t// in\n    tag_49:\n      mload(0x40)\n      dup1\n      swap2\n      sub\n      swap1\n      log1\n        /* \"src/GroceryShop.sol\":774:1177  function add(GroceryType _type, uint _units) public {... */\n      pop\n      pop\n      jump\t// out\n        /* \"src/GroceryShop.sol\":2204:2375  function withdraw() public payable {... */\n    tag_12:\n        /* \"src/GroceryShop.sol\":2271:2276  owner */\n      0x04\n      0x00\n      swap1\n      sload\n      swap1\n      0x0100\n      exp\n      swap1\n      div\n      0xffffffffffffffffffffffffffffffffffffffff\n      and\n        /* \"src/GroceryShop.sol\":2257:2276  msg.sender == owner */\n      0xffffffffffffffffffffffffffffffffffffffff\n      and\n        /* \"src/GroceryShop.sol\":2257:2267  msg.sender */\n      caller\n        /* \"src/GroceryShop.sol\":2257:2276  msg.sender == owner */\n      0xffffffffffffffffffffffffffffffffffffffff\n      and\n      eq\n        /* \"src/GroceryShop.sol\":2249:2304  require(msg.sender == owner, \"Only owner can call add\") */\n      tag_52\n      jumpi\n      mload(0x40)\n      0x08c379a000000000000000000000000000000000000000000000000000000000\n      dup2\n      mstore\n      0x04\n      add\n      tag_53\n      swap1\n      tag_26\n      jump\t// in\n    tag_53:\n      mload(0x40)\n      dup1\n      swap2\n      sub\n      swap1\n      revert\n    tag_52:\n        /* \"src/GroceryShop.sol\":2330:2334  this */\n      address\n        /* \"src/GroceryShop.sol\":2314:2345  payable(address(this)).transfer */\n      0xffffffffffffffffffffffffffffffffffffffff\n      and\n        /* \"src/GroceryShop.sol\":2314:2368  payable(address(this)).transfer(address(this).balance) */\n      0x08fc\n        /* \"src/GroceryShop.sol\":2346:2367  address(this).balance */\n      selfbalance\n        /* \"src/GroceryShop.sol\":2314:2368  payable(address(this)).transfer(address(this).balance) */\n      swap1\n      dup2\n      iszero\n      mul\n      swap1\n      mload(0x40)\n      0x00\n      mload(0x40)\n      dup1\n      dup4\n      sub\n      dup2\n      dup6\n      dup9\n      dup9\n      call\n      swap4\n      pop\n      pop\n      pop\n      pop\n      iszero\n      dup1\n      iszero\n      tag_55\n      jumpi\n      returndatasize\n      0x00\n      dup1\n      returndatacopy\n      revert(0x00, returndatasize)\n    tag_55:\n      pop\n        /* \"src/GroceryShop.sol\":2204:2375  function withdraw() public payable {... */\n      jump\t// out\n        /* \"src/GroceryShop.sol\":1183:1880  function buy(GroceryType _type, uint _units) payable public {... */\n    tag_15:\n        /* \"src/GroceryShop.sol\":1274:1284  0.01 ether */\n      0x2386f26fc10000\n        /* \"src/GroceryShop.sol\":1261:1270  msg.value */\n      callvalue\n        /* \"src/GroceryShop.sol\":1261:1284  msg.value == 0.01 ether */\n      eq\n        /* \"src/GroceryShop.sol\":1253:1285  require(msg.value == 0.01 ether) */\n      tag_57\n      jumpi\n      0x00\n      dup1\n      revert\n    tag_57:\n        /* \"src/GroceryShop.sol\":1308:1325  GroceryType.Bread */\n      0x01\n        /* \"src/GroceryShop.sol\":1299:1325  _type == GroceryType.Bread */\n      0x03\n      dup2\n      gt\n      iszero\n      tag_58\n      jumpi\n      tag_59\n      tag_29\n      jump\t// in\n    tag_59:\n    tag_58:\n        /* \"src/GroceryShop.sol\":1299:1304  _type */\n      dup3\n        /* \"src/GroceryShop.sol\":1299:1325  _type == GroceryType.Bread */\n      0x03\n      dup2\n      gt\n      iszero\n      tag_60\n      jumpi\n      tag_61\n      tag_29\n      jump\t// in\n    tag_61:\n    tag_60:\n      sub\n        /* \"src/GroceryShop.sol\":1295:1730  if (_type == GroceryType.Bread) {... */\n      tag_62\n      jumpi\n        /* \"src/GroceryShop.sol\":1358:1368  breadCount */\n      sload(0x00)\n        /* \"src/GroceryShop.sol\":1349:1355  _units */\n      dup2\n        /* \"src/GroceryShop.sol\":1349:1368  _units < breadCount */\n      lt\n        /* \"src/GroceryShop.sol\":1341:1396  require(_units < breadCount, \"Not enough bread to buy\") */\n      tag_63\n      jumpi\n      mload(0x40)\n      0x08c379a000000000000000000000000000000000000000000000000000000000\n      dup2\n      mstore\n      0x04\n      add\n      tag_64\n      swap1\n      tag_65\n      jump\t// in\n    tag_64:\n      mload(0x40)\n      dup1\n      swap2\n      sub\n      swap1\n      revert\n    tag_63:\n        /* \"src/GroceryShop.sol\":1424:1430  _units */\n      dup1\n        /* \"src/GroceryShop.sol\":1410:1420  breadCount */\n      0x00\n      dup1\n        /* \"src/GroceryShop.sol\":1410:1430  breadCount -= _units */\n      dup3\n      dup3\n      sload\n      tag_66\n      swap2\n      swap1\n      tag_67\n      jump\t// in\n    tag_66:\n      swap3\n      pop\n      pop\n      dup2\n      swap1\n      sstore\n      pop\n        /* \"src/GroceryShop.sol\":1295:1730  if (_type == GroceryType.Bread) {... */\n      jump(tag_68)\n    tag_62:\n        /* \"src/GroceryShop.sol\":1460:1475  GroceryType.Egg */\n      0x02\n        /* \"src/GroceryShop.sol\":1451:1475  _type == GroceryType.Egg */\n      0x03\n      dup2\n      gt\n      iszero\n      tag_69\n      jumpi\n      tag_70\n      tag_29\n      jump\t// in\n    tag_70:\n    tag_69:\n        /* \"src/GroceryShop.sol\":1451:1456  _type */\n      dup3\n        /* \"src/GroceryShop.sol\":1451:1475  _type == GroceryType.Egg */\n      0x03\n      dup2\n      gt\n      iszero\n      tag_71\n      jumpi\n      tag_72\n      tag_29\n      jump\t// in\n    tag_72:\n    tag_71:\n      sub\n        /* \"src/GroceryShop.sol\":1447:1730  if (_type == GroceryType.Egg) {... */\n      tag_73\n      jumpi\n        /* \"src/GroceryShop.sol\":1508:1516  eggCount */\n      sload(0x01)\n        /* \"src/GroceryShop.sol\":1499:1505  _units */\n      dup2\n        /* \"src/GroceryShop.sol\":1499:1516  _units < eggCount */\n      lt\n        /* \"src/GroceryShop.sol\":1491:1543  require(_units < eggCount, \"Not enough eggs to buy\") */\n      tag_74\n      jumpi\n      mload(0x40)\n      0x08c379a000000000000000000000000000000000000000000000000000000000\n      dup2\n      mstore\n      0x04\n      add\n      tag_75\n      swap1\n      tag_76\n      jump\t// in\n    tag_75:\n      mload(0x40)\n      dup1\n      swap2\n      sub\n      swap1\n      revert\n    tag_74:\n        /* \"src/GroceryShop.sol\":1569:1575  _units */\n      dup1\n        /* \"src/GroceryShop.sol\":1557:1565  eggCount */\n      0x01\n      0x00\n        /* \"src/GroceryShop.sol\":1557:1575  eggCount -= _units */\n      dup3\n      dup3\n      sload\n      tag_77\n      swap2\n      swap1\n      tag_67\n      jump\t// in\n    tag_77:\n      swap3\n      pop\n      pop\n      dup2\n      swap1\n      sstore\n      pop\n        /* \"src/GroceryShop.sol\":1447:1730  if (_type == GroceryType.Egg) {... */\n      jump(tag_78)\n    tag_73:\n        /* \"src/GroceryShop.sol\":1605:1620  GroceryType.Jam */\n      0x03\n        /* \"src/GroceryShop.sol\":1596:1620  _type == GroceryType.Jam */\n      dup1\n      dup2\n      gt\n      iszero\n      tag_79\n      jumpi\n      tag_80\n      tag_29\n      jump\t// in\n    tag_80:\n    tag_79:\n        /* \"src/GroceryShop.sol\":1596:1601  _type */\n      dup3\n        /* \"src/GroceryShop.sol\":1596:1620  _type == GroceryType.Jam */\n      0x03\n      dup2\n      gt\n      iszero\n      tag_81\n      jumpi\n      tag_82\n      tag_29\n      jump\t// in\n    tag_82:\n    tag_81:\n      sub\n        /* \"src/GroceryShop.sol\":1592:1730  if (_type == GroceryType.Jam) {... */\n      tag_83\n      jumpi\n        /* \"src/GroceryShop.sol\":1653:1661  jamCount */\n      sload(0x02)\n        /* \"src/GroceryShop.sol\":1644:1650  _units */\n      dup2\n        /* \"src/GroceryShop.sol\":1644:1661  _units < jamCount */\n      lt\n        /* \"src/GroceryShop.sol\":1636:1687  require(_units < jamCount, \"Not enough jam to buy\") */\n      tag_84\n      jumpi\n      mload(0x40)\n      0x08c379a000000000000000000000000000000000000000000000000000000000\n      dup2\n      mstore\n      0x04\n      add\n      tag_85\n      swap1\n      tag_86\n      jump\t// in\n    tag_85:\n      mload(0x40)\n      dup1\n      swap2\n      sub\n      swap1\n      revert\n    tag_84:\n        /* \"src/GroceryShop.sol\":1713:1719  _units */\n      dup1\n        /* \"src/GroceryShop.sol\":1701:1709  jamCount */\n      0x02\n      0x00\n        /* \"src/GroceryShop.sol\":1701:1719  jamCount -= _units */\n      dup3\n      dup3\n      sload\n      tag_87\n      swap2\n      swap1\n      tag_67\n      jump\t// in\n    tag_87:\n      swap3\n      pop\n      pop\n      dup2\n      swap1\n      sstore\n      pop\n        /* \"src/GroceryShop.sol\":1592:1730  if (_type == GroceryType.Jam) {... */\n    tag_83:\n        /* \"src/GroceryShop.sol\":1447:1730  if (_type == GroceryType.Egg) {... */\n    tag_78:\n        /* \"src/GroceryShop.sol\":1295:1730  if (_type == GroceryType.Bread) {... */\n    tag_68:\n        /* \"src/GroceryShop.sol\":1739:1749  purchaseId */\n      0x03\n      0x00\n        /* \"src/GroceryShop.sol\":1739:1751  purchaseId++ */\n      dup2\n      sload\n      dup1\n      swap3\n      swap2\n      swap1\n      tag_88\n      swap1\n      tag_89\n      jump\t// in\n    tag_88:\n      swap2\n      swap1\n      pop\n      sstore\n      pop\n        /* \"src/GroceryShop.sol\":1785:1824  CashRegister(msg.sender, _type, _units) */\n      mload(0x40)\n      dup1\n      0x60\n      add\n      0x40\n      mstore\n      dup1\n        /* \"src/GroceryShop.sol\":1798:1808  msg.sender */\n      caller\n        /* \"src/GroceryShop.sol\":1785:1824  CashRegister(msg.sender, _type, _units) */\n      0xffffffffffffffffffffffffffffffffffffffff\n      and\n      dup2\n      mstore\n      0x20\n      add\n        /* \"src/GroceryShop.sol\":1810:1815  _type */\n      dup4\n        /* \"src/GroceryShop.sol\":1785:1824  CashRegister(msg.sender, _type, _units) */\n      0x03\n      dup2\n      gt\n      iszero\n      tag_90\n      jumpi\n      tag_91\n      tag_29\n      jump\t// in\n    tag_91:\n    tag_90:\n      dup2\n      mstore\n      0x20\n      add\n        /* \"src/GroceryShop.sol\":1817:1823  _units */\n      dup3\n        /* \"src/GroceryShop.sol\":1785:1824  CashRegister(msg.sender, _type, _units) */\n      dup2\n      mstore\n      pop\n        /* \"src/GroceryShop.sol\":1761:1770  purchased */\n      0x05\n        /* \"src/GroceryShop.sol\":1761:1782  purchased[purchaseId] */\n      0x00\n        /* \"src/GroceryShop.sol\":1771:1781  purchaseId */\n      sload(0x03)\n        /* \"src/GroceryShop.sol\":1761:1782  purchased[purchaseId] */\n      dup2\n      mstore\n      0x20\n      add\n      swap1\n      dup2\n      mstore\n      0x20\n      add\n      0x00\n      keccak256\n        /* \"src/GroceryShop.sol\":1761:1824  purchased[purchaseId] = CashRegister(msg.sender, _type, _units) */\n      0x00\n      dup3\n      add\n      mload\n      dup2\n      0x00\n      add\n      exp(0x0100, 0x00)\n      dup2\n      sload\n      dup2\n      0xffffffffffffffffffffffffffffffffffffffff\n      mul\n      not\n      and\n      swap1\n      dup4\n      0xffffffffffffffffffffffffffffffffffffffff\n      and\n      mul\n      or\n      swap1\n      sstore\n      pop\n      0x20\n      dup3\n      add\n      mload\n      dup2\n      0x00\n      add\n      exp(0x0100, 0x14)\n      dup2\n      sload\n      dup2\n      0xff\n      mul\n      not\n      and\n      swap1\n      dup4\n      0x03\n      dup2\n      gt\n      iszero\n      tag_92\n      jumpi\n      tag_93\n      tag_29\n      jump\t// in\n    tag_93:\n    tag_92:\n      mul\n      or\n      swap1\n      sstore\n      pop\n      0x40\n      dup3\n      add\n      mload\n      dup2\n      0x01\n      add\n      sstore\n      swap1\n      pop\n      pop\n        /* \"src/GroceryShop.sol\":1840:1873  Bought(purchaseId, _type, _units) */\n      0x9138d6824e59d10af0b9bf81f70adc89aca8c8fcd9c1faf740f29b3ba94e5970\n        /* \"src/GroceryShop.sol\":1847:1857  purchaseId */\n      sload(0x03)\n        /* \"src/GroceryShop.sol\":1859:1864  _type */\n      dup4\n        /* \"src/GroceryShop.sol\":1866:1872  _units */\n      dup4\n        /* \"src/GroceryShop.sol\":1840:1873  Bought(purchaseId, _type, _units) */\n      mload(0x40)\n      tag_94\n      swap4\n      swap3\n      swap2\n      swap1\n      tag_95\n      jump\t// in\n    tag_94:\n      mload(0x40)\n      dup1\n      swap2\n      sub\n      swap1\n      log1\n        /* \"src/GroceryShop.sol\":1183:1880  function buy(GroceryType _type, uint _units) payable public {... */\n      pop\n      pop\n      jump\t// out\n        /* \"src/GroceryShop.sol\":1886:2198  function cashRegister(uint _purchaseId) public view returns (address, GroceryShop.GroceryType, uint256) {... */\n    tag_20:\n        /* \"src/GroceryShop.sol\":1947:1954  address */\n      0x00\n        /* \"src/GroceryShop.sol\":1956:1979  GroceryShop.GroceryType */\n      dup1\n        /* \"src/GroceryShop.sol\":1981:1988  uint256 */\n      0x00\n        /* \"src/GroceryShop.sol\":2022:2023  0 */\n      dup1\n        /* \"src/GroceryShop.sol\":2008:2019  _purchaseId */\n      dup5\n        /* \"src/GroceryShop.sol\":2008:2023  _purchaseId > 0 */\n      gt\n        /* \"src/GroceryShop.sol\":2008:2052  _purchaseId > 0 && _purchaseId <= purchaseId */\n      dup1\n      iszero\n      tag_97\n      jumpi\n      pop\n        /* \"src/GroceryShop.sol\":2042:2052  purchaseId */\n      sload(0x03)\n        /* \"src/GroceryShop.sol\":2027:2038  _purchaseId */\n      dup5\n        /* \"src/GroceryShop.sol\":2027:2052  _purchaseId <= purchaseId */\n      gt\n      iszero\n        /* \"src/GroceryShop.sol\":2008:2052  _purchaseId > 0 && _purchaseId <= purchaseId */\n    tag_97:\n        /* \"src/GroceryShop.sol\":2000:2075  require(_purchaseId > 0 && _purchaseId <= purchaseId, \"Unknown purchaseId\") */\n      tag_98\n      jumpi\n      mload(0x40)\n      0x08c379a000000000000000000000000000000000000000000000000000000000\n      dup2\n      mstore\n      0x04\n      add\n      tag_99\n      swap1\n      tag_100\n      jump\t// in\n    tag_99:\n      mload(0x40)\n      dup1\n      swap2\n      sub\n      swap1\n      revert\n    tag_98:\n        /* \"src/GroceryShop.sol\":2085:2111  CashRegister storage order */\n      0x00\n        /* \"src/GroceryShop.sol\":2114:2123  purchased */\n      0x05\n        /* \"src/GroceryShop.sol\":2114:2136  purchased[_purchaseId] */\n      0x00\n        /* \"src/GroceryShop.sol\":2124:2135  _purchaseId */\n      dup7\n        /* \"src/GroceryShop.sol\":2114:2136  purchased[_purchaseId] */\n      dup2\n      mstore\n      0x20\n      add\n      swap1\n      dup2\n      mstore\n      0x20\n      add\n      0x00\n      keccak256\n        /* \"src/GroceryShop.sol\":2085:2136  CashRegister storage order = purchased[_purchaseId] */\n      swap1\n      pop\n        /* \"src/GroceryShop.sol\":2154:2159  order */\n      dup1\n        /* \"src/GroceryShop.sol\":2154:2165  order.buyer */\n      0x00\n      add\n      0x00\n      swap1\n      sload\n      swap1\n      0x0100\n      exp\n      swap1\n      div\n      0xffffffffffffffffffffffffffffffffffffffff\n      and\n        /* \"src/GroceryShop.sol\":2167:2172  order */\n      dup2\n        /* \"src/GroceryShop.sol\":2167:2177  order.item */\n      0x00\n      add\n      0x14\n      swap1\n      sload\n      swap1\n      0x0100\n      exp\n      swap1\n      div\n      0xff\n      and\n        /* \"src/GroceryShop.sol\":2179:2184  order */\n      dup3\n        /* \"src/GroceryShop.sol\":2179:2190  order.count */\n      0x01\n      add\n      sload\n        /* \"src/GroceryShop.sol\":2146:2191  return (order.buyer, order.item, order.count) */\n      swap4\n      pop\n      swap4\n      pop\n      swap4\n      pop\n      pop\n        /* \"src/GroceryShop.sol\":1886:2198  function cashRegister(uint _purchaseId) public view returns (address, GroceryShop.GroceryType, uint256) {... */\n      swap2\n      swap4\n      swap1\n      swap3\n      pop\n      jump\t// out\n        /* \"#utility.yul\":88:205   */\n    tag_102:\n        /* \"#utility.yul\":197:198   */\n      0x00\n        /* \"#utility.yul\":194:195   */\n      dup1\n        /* \"#utility.yul\":187:199   */\n      revert\n        /* \"#utility.yul\":334:446   */\n    tag_104:\n        /* \"#utility.yul\":420:421   */\n      0x04\n        /* \"#utility.yul\":413:418   */\n      dup2\n        /* \"#utility.yul\":410:422   */\n      lt\n        /* \"#utility.yul\":400:440   */\n      tag_134\n      jumpi\n        /* \"#utility.yul\":436:437   */\n      0x00\n        /* \"#utility.yul\":433:434   */\n      dup1\n        /* \"#utility.yul\":426:438   */\n      revert\n        /* \"#utility.yul\":400:440   */\n    tag_134:\n        /* \"#utility.yul\":334:446   */\n      pop\n      jump\t// out\n        /* \"#utility.yul\":452:617   */\n    tag_105:\n        /* \"#utility.yul\":511:516   */\n      0x00\n        /* \"#utility.yul\":549:555   */\n      dup2\n        /* \"#utility.yul\":536:556   */\n      calldataload\n        /* \"#utility.yul\":527:556   */\n      swap1\n      pop\n        /* \"#utility.yul\":565:611   */\n      tag_136\n        /* \"#utility.yul\":605:610   */\n      dup2\n        /* \"#utility.yul\":565:611   */\n      tag_104\n      jump\t// in\n    tag_136:\n        /* \"#utility.yul\":452:617   */\n      swap3\n      swap2\n      pop\n      pop\n      jump\t// out\n        /* \"#utility.yul\":623:700   */\n    tag_106:\n        /* \"#utility.yul\":660:667   */\n      0x00\n        /* \"#utility.yul\":689:694   */\n      dup2\n        /* \"#utility.yul\":678:694   */\n      swap1\n      pop\n        /* \"#utility.yul\":623:700   */\n      swap2\n      swap1\n      pop\n      jump\t// out\n        /* \"#utility.yul\":706:828   */\n    tag_107:\n        /* \"#utility.yul\":779:803   */\n      tag_139\n        /* \"#utility.yul\":797:802   */\n      dup2\n        /* \"#utility.yul\":779:803   */\n      tag_106\n      jump\t// in\n    tag_139:\n        /* \"#utility.yul\":772:777   */\n      dup2\n        /* \"#utility.yul\":769:804   */\n      eq\n        /* \"#utility.yul\":759:822   */\n      tag_140\n      jumpi\n        /* \"#utility.yul\":818:819   */\n      0x00\n        /* \"#utility.yul\":815:816   */\n      dup1\n        /* \"#utility.yul\":808:820   */\n      revert\n        /* \"#utility.yul\":759:822   */\n    tag_140:\n        /* \"#utility.yul\":706:828   */\n      pop\n      jump\t// out\n        /* \"#utility.yul\":834:973   */\n    tag_108:\n        /* \"#utility.yul\":880:885   */\n      0x00\n        /* \"#utility.yul\":918:924   */\n      dup2\n        /* \"#utility.yul\":905:925   */\n      calldataload\n        /* \"#utility.yul\":896:925   */\n      swap1\n      pop\n        /* \"#utility.yul\":934:967   */\n      tag_142\n        /* \"#utility.yul\":961:966   */\n      dup2\n        /* \"#utility.yul\":934:967   */\n      tag_107\n      jump\t// in\n    tag_142:\n        /* \"#utility.yul\":834:973   */\n      swap3\n      swap2\n      pop\n      pop\n      jump\t// out\n        /* \"#utility.yul\":979:1479   */\n    tag_9:\n        /* \"#utility.yul\":1060:1066   */\n      0x00\n        /* \"#utility.yul\":1068:1074   */\n      dup1\n        /* \"#utility.yul\":1117:1119   */\n      0x40\n        /* \"#utility.yul\":1105:1114   */\n      dup4\n        /* \"#utility.yul\":1096:1103   */\n      dup6\n        /* \"#utility.yul\":1092:1115   */\n      sub\n        /* \"#utility.yul\":1088:1120   */\n      slt\n        /* \"#utility.yul\":1085:1204   */\n      iszero\n      tag_144\n      jumpi\n        /* \"#utility.yul\":1123:1202   */\n      tag_145\n      tag_102\n      jump\t// in\n    tag_145:\n        /* \"#utility.yul\":1085:1204   */\n    tag_144:\n        /* \"#utility.yul\":1243:1244   */\n      0x00\n        /* \"#utility.yul\":1268:1334   */\n      tag_146\n        /* \"#utility.yul\":1326:1333   */\n      dup6\n        /* \"#utility.yul\":1317:1323   */\n      dup3\n        /* \"#utility.yul\":1306:1315   */\n      dup7\n        /* \"#utility.yul\":1302:1324   */\n      add\n        /* \"#utility.yul\":1268:1334   */\n      tag_105\n      jump\t// in\n    tag_146:\n        /* \"#utility.yul\":1258:1334   */\n      swap3\n      pop\n        /* \"#utility.yul\":1214:1344   */\n      pop\n        /* \"#utility.yul\":1383:1385   */\n      0x20\n        /* \"#utility.yul\":1409:1462   */\n      tag_147\n        /* \"#utility.yul\":1454:1461   */\n      dup6\n        /* \"#utility.yul\":1445:1451   */\n      dup3\n        /* \"#utility.yul\":1434:1443   */\n      dup7\n        /* \"#utility.yul\":1430:1452   */\n      add\n        /* \"#utility.yul\":1409:1462   */\n      tag_108\n      jump\t// in\n    tag_147:\n        /* \"#utility.yul\":1399:1462   */\n      swap2\n      pop\n        /* \"#utility.yul\":1354:1472   */\n      pop\n        /* \"#utility.yul\":979:1479   */\n      swap3\n      pop\n      swap3\n      swap1\n      pop\n      jump\t// out\n        /* \"#utility.yul\":1485:1814   */\n    tag_19:\n        /* \"#utility.yul\":1544:1550   */\n      0x00\n        /* \"#utility.yul\":1593:1595   */\n      0x20\n        /* \"#utility.yul\":1581:1590   */\n      dup3\n        /* \"#utility.yul\":1572:1579   */\n      dup5\n        /* \"#utility.yul\":1568:1591   */\n      sub\n        /* \"#utility.yul\":1564:1596   */\n      slt\n        /* \"#utility.yul\":1561:1680   */\n      iszero\n      tag_149\n      jumpi\n        /* \"#utility.yul\":1599:1678   */\n      tag_150\n      tag_102\n      jump\t// in\n    tag_150:\n        /* \"#utility.yul\":1561:1680   */\n    tag_149:\n        /* \"#utility.yul\":1719:1720   */\n      0x00\n        /* \"#utility.yul\":1744:1797   */\n      tag_151\n        /* \"#utility.yul\":1789:1796   */\n      dup5\n        /* \"#utility.yul\":1780:1786   */\n      dup3\n        /* \"#utility.yul\":1769:1778   */\n      dup6\n        /* \"#utility.yul\":1765:1787   */\n      add\n        /* \"#utility.yul\":1744:1797   */\n      tag_108\n      jump\t// in\n    tag_151:\n        /* \"#utility.yul\":1734:1797   */\n      swap2\n      pop\n        /* \"#utility.yul\":1690:1807   */\n      pop\n        /* \"#utility.yul\":1485:1814   */\n      swap3\n      swap2\n      pop\n      pop\n      jump\t// out\n        /* \"#utility.yul\":1820:1946   */\n    tag_109:\n        /* \"#utility.yul\":1857:1864   */\n      0x00\n        /* \"#utility.yul\":1897:1939   */\n      0xffffffffffffffffffffffffffffffffffffffff\n        /* \"#utility.yul\":1890:1895   */\n      dup3\n        /* \"#utility.yul\":1886:1940   */\n      and\n        /* \"#utility.yul\":1875:1940   */\n      swap1\n      pop\n        /* \"#utility.yul\":1820:1946   */\n      swap2\n      swap1\n      pop\n      jump\t// out\n        /* \"#utility.yul\":1952:2048   */\n    tag_110:\n        /* \"#utility.yul\":1989:1996   */\n      0x00\n        /* \"#utility.yul\":2018:2042   */\n      tag_154\n        /* \"#utility.yul\":2036:2041   */\n      dup3\n        /* \"#utility.yul\":2018:2042   */\n      tag_109\n      jump\t// in\n    tag_154:\n        /* \"#utility.yul\":2007:2042   */\n      swap1\n      pop\n        /* \"#utility.yul\":1952:2048   */\n      swap2\n      swap1\n      pop\n      jump\t// out\n        /* \"#utility.yul\":2054:2172   */\n    tag_111:\n        /* \"#utility.yul\":2141:2165   */\n      tag_156\n        /* \"#utility.yul\":2159:2164   */\n      dup2\n        /* \"#utility.yul\":2141:2165   */\n      tag_110\n      jump\t// in\n    tag_156:\n        /* \"#utility.yul\":2136:2139   */\n      dup3\n        /* \"#utility.yul\":2129:2166   */\n      mstore\n        /* \"#utility.yul\":2054:2172   */\n      pop\n      pop\n      jump\t// out\n        /* \"#utility.yul\":2178:2358   */\n    tag_29:\n        /* \"#utility.yul\":2226:2303   */\n      0x4e487b7100000000000000000000000000000000000000000000000000000000\n        /* \"#utility.yul\":2223:2224   */\n      0x00\n        /* \"#utility.yul\":2216:2304   */\n      mstore\n        /* \"#utility.yul\":2323:2327   */\n      0x21\n        /* \"#utility.yul\":2320:2321   */\n      0x04\n        /* \"#utility.yul\":2313:2328   */\n      mstore\n        /* \"#utility.yul\":2347:2351   */\n      0x24\n        /* \"#utility.yul\":2344:2345   */\n      0x00\n        /* \"#utility.yul\":2337:2352   */\n      revert\n        /* \"#utility.yul\":2364:2482   */\n    tag_112:\n        /* \"#utility.yul\":2450:2451   */\n      0x04\n        /* \"#utility.yul\":2443:2448   */\n      dup2\n        /* \"#utility.yul\":2440:2452   */\n      lt\n        /* \"#utility.yul\":2430:2476   */\n      tag_159\n      jumpi\n        /* \"#utility.yul\":2456:2474   */\n      tag_160\n      tag_29\n      jump\t// in\n    tag_160:\n        /* \"#utility.yul\":2430:2476   */\n    tag_159:\n        /* \"#utility.yul\":2364:2482   */\n      pop\n      jump\t// out\n        /* \"#utility.yul\":2488:2625   */\n    tag_113:\n        /* \"#utility.yul\":2538:2545   */\n      0x00\n        /* \"#utility.yul\":2567:2572   */\n      dup2\n        /* \"#utility.yul\":2556:2572   */\n      swap1\n      pop\n        /* \"#utility.yul\":2573:2619   */\n      tag_162\n        /* \"#utility.yul\":2613:2618   */\n      dup3\n        /* \"#utility.yul\":2573:2619   */\n      tag_112\n      jump\t// in\n    tag_162:\n        /* \"#utility.yul\":2488:2625   */\n      swap2\n      swap1\n      pop\n      jump\t// out\n        /* \"#utility.yul\":2631:2768   */\n    tag_114:\n        /* \"#utility.yul\":2692:2701   */\n      0x00\n        /* \"#utility.yul\":2725:2762   */\n      tag_164\n        /* \"#utility.yul\":2756:2761   */\n      dup3\n        /* \"#utility.yul\":2725:2762   */\n      tag_113\n      jump\t// in\n    tag_164:\n        /* \"#utility.yul\":2712:2762   */\n      swap1\n      pop\n        /* \"#utility.yul\":2631:2768   */\n      swap2\n      swap1\n      pop\n      jump\t// out\n        /* \"#utility.yul\":2774:2927   */\n    tag_115:\n        /* \"#utility.yul\":2872:2920   */\n      tag_166\n        /* \"#utility.yul\":2914:2919   */\n      dup2\n        /* \"#utility.yul\":2872:2920   */\n      tag_114\n      jump\t// in\n    tag_166:\n        /* \"#utility.yul\":2867:2870   */\n      dup3\n        /* \"#utility.yul\":2860:2921   */\n      mstore\n        /* \"#utility.yul\":2774:2927   */\n      pop\n      pop\n      jump\t// out\n        /* \"#utility.yul\":2933:3051   */\n    tag_116:\n        /* \"#utility.yul\":3020:3044   */\n      tag_168\n        /* \"#utility.yul\":3038:3043   */\n      dup2\n        /* \"#utility.yul\":3020:3044   */\n      tag_106\n      jump\t// in\n    tag_168:\n        /* \"#utility.yul\":3015:3018   */\n      dup3\n        /* \"#utility.yul\":3008:3045   */\n      mstore\n        /* \"#utility.yul\":2933:3051   */\n      pop\n      pop\n      jump\t// out\n        /* \"#utility.yul\":3057:3521   */\n    tag_22:\n        /* \"#utility.yul\":3217:3221   */\n      0x00\n        /* \"#utility.yul\":3255:3257   */\n      0x60\n        /* \"#utility.yul\":3244:3253   */\n      dup3\n        /* \"#utility.yul\":3240:3258   */\n      add\n        /* \"#utility.yul\":3232:3258   */\n      swap1\n      pop\n        /* \"#utility.yul\":3268:3339   */\n      tag_170\n        /* \"#utility.yul\":3336:3337   */\n      0x00\n        /* \"#utility.yul\":3325:3334   */\n      dup4\n        /* \"#utility.yul\":3321:3338   */\n      add\n        /* \"#utility.yul\":3312:3318   */\n      dup7\n        /* \"#utility.yul\":3268:3339   */\n      tag_111\n      jump\t// in\n    tag_170:\n        /* \"#utility.yul\":3349:3432   */\n      tag_171\n        /* \"#utility.yul\":3428:3430   */\n      0x20\n        /* \"#utility.yul\":3417:3426   */\n      dup4\n        /* \"#utility.yul\":3413:3431   */\n      add\n        /* \"#utility.yul\":3404:3410   */\n      dup6\n        /* \"#utility.yul\":3349:3432   */\n      tag_115\n      jump\t// in\n    tag_171:\n        /* \"#utility.yul\":3442:3514   */\n      tag_172\n        /* \"#utility.yul\":3510:3512   */\n      0x40\n        /* \"#utility.yul\":3499:3508   */\n      dup4\n        /* \"#utility.yul\":3495:3513   */\n      add\n        /* \"#utility.yul\":3486:3492   */\n      dup5\n        /* \"#utility.yul\":3442:3514   */\n      tag_116\n      jump\t// in\n    tag_172:\n        /* \"#utility.yul\":3057:3521   */\n      swap5\n      swap4\n      pop\n      pop\n      pop\n      pop\n      jump\t// out\n        /* \"#utility.yul\":3527:3696   */\n    tag_117:\n        /* \"#utility.yul\":3611:3622   */\n      0x00\n        /* \"#utility.yul\":3645:3651   */\n      dup3\n        /* \"#utility.yul\":3640:3643   */\n      dup3\n        /* \"#utility.yul\":3633:3652   */\n      mstore\n        /* \"#utility.yul\":3685:3689   */\n      0x20\n        /* \"#utility.yul\":3680:3683   */\n      dup3\n        /* \"#utility.yul\":3676:3690   */\n      add\n        /* \"#utility.yul\":3661:3690   */\n      swap1\n      pop\n        /* \"#utility.yul\":3527:3696   */\n      swap3\n      swap2\n      pop\n      pop\n      jump\t// out\n        /* \"#utility.yul\":3702:3875   */\n    tag_118:\n        /* \"#utility.yul\":3842:3867   */\n      0x4f6e6c79206f776e65722063616e2063616c6c20616464000000000000000000\n        /* \"#utility.yul\":3838:3839   */\n      0x00\n        /* \"#utility.yul\":3830:3836   */\n      dup3\n        /* \"#utility.yul\":3826:3840   */\n      add\n        /* \"#utility.yul\":3819:3868   */\n      mstore\n        /* \"#utility.yul\":3702:3875   */\n      pop\n      jump\t// out\n        /* \"#utility.yul\":3881:4247   */\n    tag_119:\n        /* \"#utility.yul\":4023:4026   */\n      0x00\n        /* \"#utility.yul\":4044:4111   */\n      tag_176\n        /* \"#utility.yul\":4108:4110   */\n      0x17\n        /* \"#utility.yul\":4103:4106   */\n      dup4\n        /* \"#utility.yul\":4044:4111   */\n      tag_117\n      jump\t// in\n    tag_176:\n        /* \"#utility.yul\":4037:4111   */\n      swap2\n      pop\n        /* \"#utility.yul\":4120:4213   */\n      tag_177\n        /* \"#utility.yul\":4209:4212   */\n      dup3\n        /* \"#utility.yul\":4120:4213   */\n      tag_118\n      jump\t// in\n    tag_177:\n        /* \"#utility.yul\":4238:4240   */\n      0x20\n        /* \"#utility.yul\":4233:4236   */\n      dup3\n        /* \"#utility.yul\":4229:4241   */\n      add\n        /* \"#utility.yul\":4222:4241   */\n      swap1\n      pop\n        /* \"#utility.yul\":3881:4247   */\n      swap2\n      swap1\n      pop\n      jump\t// out\n        /* \"#utility.yul\":4253:4672   */\n    tag_26:\n        /* \"#utility.yul\":4419:4423   */\n      0x00\n        /* \"#utility.yul\":4457:4459   */\n      0x20\n        /* \"#utility.yul\":4446:4455   */\n      dup3\n        /* \"#utility.yul\":4442:4460   */\n      add\n        /* \"#utility.yul\":4434:4460   */\n      swap1\n      pop\n        /* \"#utility.yul\":4506:4515   */\n      dup2\n        /* \"#utility.yul\":4500:4504   */\n      dup2\n        /* \"#utility.yul\":4496:4516   */\n      sub\n        /* \"#utility.yul\":4492:4493   */\n      0x00\n        /* \"#utility.yul\":4481:4490   */\n      dup4\n        /* \"#utility.yul\":4477:4494   */\n      add\n        /* \"#utility.yul\":4470:4517   */\n      mstore\n        /* \"#utility.yul\":4534:4665   */\n      tag_179\n        /* \"#utility.yul\":4660:4664   */\n      dup2\n        /* \"#utility.yul\":4534:4665   */\n      tag_119\n      jump\t// in\n    tag_179:\n        /* \"#utility.yul\":4526:4665   */\n      swap1\n      pop\n        /* \"#utility.yul\":4253:4672   */\n      swap2\n      swap1\n      pop\n      jump\t// out\n        /* \"#utility.yul\":4678:4858   */\n    tag_120:\n        /* \"#utility.yul\":4726:4803   */\n      0x4e487b7100000000000000000000000000000000000000000000000000000000\n        /* \"#utility.yul\":4723:4724   */\n      0x00\n        /* \"#utility.yul\":4716:4804   */\n      mstore\n        /* \"#utility.yul\":4823:4827   */\n      0x11\n        /* \"#utility.yul\":4820:4821   */\n      0x04\n        /* \"#utility.yul\":4813:4828   */\n      mstore\n        /* \"#utility.yul\":4847:4851   */\n      0x24\n        /* \"#utility.yul\":4844:4845   */\n      0x00\n        /* \"#utility.yul\":4837:4852   */\n      revert\n        /* \"#utility.yul\":4864:5169   */\n    tag_34:\n        /* \"#utility.yul\":4904:4907   */\n      0x00\n        /* \"#utility.yul\":4923:4943   */\n      tag_182\n        /* \"#utility.yul\":4941:4942   */\n      dup3\n        /* \"#utility.yul\":4923:4943   */\n      tag_106\n      jump\t// in\n    tag_182:\n        /* \"#utility.yul\":4918:4943   */\n      swap2\n      pop\n        /* \"#utility.yul\":4957:4977   */\n      tag_183\n        /* \"#utility.yul\":4975:4976   */\n      dup4\n        /* \"#utility.yul\":4957:4977   */\n      tag_106\n      jump\t// in\n    tag_183:\n        /* \"#utility.yul\":4952:4977   */\n      swap3\n      pop\n        /* \"#utility.yul\":5111:5112   */\n      dup3\n        /* \"#utility.yul\":5043:5109   */\n      0xffffffffffffffffffffffffffffffffffffffffffffffffffffffffffffffff\n        /* \"#utility.yul\":5039:5113   */\n      sub\n        /* \"#utility.yul\":5036:5037   */\n      dup3\n        /* \"#utility.yul\":5033:5114   */\n      gt\n        /* \"#utility.yul\":5030:5137   */\n      iszero\n      tag_184\n      jumpi\n        /* \"#utility.yul\":5117:5135   */\n      tag_185\n      tag_120\n      jump\t// in\n    tag_185:\n        /* \"#utility.yul\":5030:5137   */\n    tag_184:\n        /* \"#utility.yul\":5161:5162   */\n      dup3\n        /* \"#utility.yul\":5158:5159   */\n      dup3\n        /* \"#utility.yul\":5154:5163   */\n      add\n        /* \"#utility.yul\":5147:5163   */\n      swap1\n      pop\n        /* \"#utility.yul\":4864:5169   */\n      swap3\n      swap2\n      pop\n      pop\n      jump\t// out\n        /* \"#utility.yul\":5175:5529   */\n    tag_50:\n        /* \"#utility.yul\":5307:5311   */\n      0x00\n        /* \"#utility.yul\":5345:5347   */\n      0x40\n        /* \"#utility.yul\":5334:5343   */\n      dup3\n        /* \"#utility.yul\":5330:5348   */\n      add\n        /* \"#utility.yul\":5322:5348   */\n      swap1\n      pop\n        /* \"#utility.yul\":5358:5440   */\n      tag_187\n        /* \"#utility.yul\":5437:5438   */\n      0x00\n        /* \"#utility.yul\":5426:5435   */\n      dup4\n        /* \"#utility.yul\":5422:5439   */\n      add\n        /* \"#utility.yul\":5413:5419   */\n      dup6\n        /* \"#utility.yul\":5358:5440   */\n      tag_115\n      jump\t// in\n    tag_187:\n        /* \"#utility.yul\":5450:5522   */\n      tag_188\n        /* \"#utility.yul\":5518:5520   */\n      0x20\n        /* \"#utility.yul\":5507:5516   */\n      dup4\n        /* \"#utility.yul\":5503:5521   */\n      add\n        /* \"#utility.yul\":5494:5500   */\n      dup5\n        /* \"#utility.yul\":5450:5522   */\n      tag_116\n      jump\t// in\n    tag_188:\n        /* \"#utility.yul\":5175:5529   */\n      swap4\n      swap3\n      pop\n      pop\n      pop\n      jump\t// out\n        /* \"#utility.yul\":5535:5708   */\n    tag_121:\n        /* \"#utility.yul\":5675:5700   */\n      0x4e6f7420656e6f75676820627265616420746f20627579000000000000000000\n        /* \"#utility.yul\":5671:5672   */\n      0x00\n        /* \"#utility.yul\":5663:5669   */\n      dup3\n        /* \"#utility.yul\":5659:5673   */\n      add\n        /* \"#utility.yul\":5652:5701   */\n      mstore\n        /* \"#utility.yul\":5535:5708   */\n      pop\n      jump\t// out\n        /* \"#utility.yul\":5714:6080   */\n    tag_122:\n        /* \"#utility.yul\":5856:5859   */\n      0x00\n        /* \"#utility.yul\":5877:5944   */\n      tag_191\n        /* \"#utility.yul\":5941:5943   */\n      0x17\n        /* \"#utility.yul\":5936:5939   */\n      dup4\n        /* \"#utility.yul\":5877:5944   */\n      tag_117\n      jump\t// in\n    tag_191:\n        /* \"#utility.yul\":5870:5944   */\n      swap2\n      pop\n        /* \"#utility.yul\":5953:6046   */\n      tag_192\n        /* \"#utility.yul\":6042:6045   */\n      dup3\n        /* \"#utility.yul\":5953:6046   */\n      tag_121\n      jump\t// in\n    tag_192:\n        /* \"#utility.yul\":6071:6073   */\n      0x20\n        /* \"#utility.yul\":6066:6069   */\n      dup3\n        /* \"#utility.yul\":6062:6074   */\n      add\n        /* \"#utility.yul\":6055:6074   */\n      swap1\n      pop\n        /* \"#utility.yul\":5714:6080   */\n      swap2\n      swap1\n      pop\n      jump\t// out\n        /* \"#utility.yul\":6086:6505   */\n    tag_65:\n        /* \"#utility.yul\":6252:6256   */\n      0x00\n        /* \"#utility.yul\":6290:6292   */\n      0x20\n        /* \"#utility.yul\":6279:6288   */\n      dup3\n        /* \"#utility.yul\":6275:6293   */\n      add\n        /* \"#utility.yul\":6267:6293   */\n      swap1\n      pop\n        /* \"#utility.yul\":6339:6348   */\n      dup2\n        /* \"#utility.yul\":6333:6337   */\n      dup2\n        /* \"#utility.yul\":6329:6349   */\n      sub\n        /* \"#utility.yul\":6325:6326   */\n      0x00\n        /* \"#utility.yul\":6314:6323   */\n      dup4\n        /* \"#utility.yul\":6310:6327   */\n      add\n        /* \"#utility.yul\":6303:6350   */\n      mstore\n        /* \"#utility.yul\":6367:6498   */\n      tag_194\n        /* \"#utility.yul\":6493:6497   */\n      dup2\n        /* \"#utility.yul\":6367:6498   */\n      tag_122\n      jump\t// in\n    tag_194:\n        /* \"#utility.yul\":6359:6498   */\n      swap1\n      pop\n        /* \"#utility.yul\":6086:6505   */\n      swap2\n      swap1\n      pop\n      jump\t// out\n        /* \"#utility.yul\":6511:6702   */\n    tag_67:\n        /* \"#utility.yul\":6551:6555   */\n      0x00\n        /* \"#utility.yul\":6571:6591   */\n      tag_196\n        /* \"#utility.yul\":6589:6590   */\n      dup3\n        /* \"#utility.yul\":6571:6591   */\n      tag_106\n      jump\t// in\n    tag_196:\n        /* \"#utility.yul\":6566:6591   */\n      swap2\n      pop\n        /* \"#utility.yul\":6605:6625   */\n      tag_197\n        /* \"#utility.yul\":6623:6624   */\n      dup4\n        /* \"#utility.yul\":6605:6625   */\n      tag_106\n      jump\t// in\n    tag_197:\n        /* \"#utility.yul\":6600:6625   */\n      swap3\n      pop\n        /* \"#utility.yul\":6644:6645   */\n      dup3\n        /* \"#utility.yul\":6641:6642   */\n      dup3\n        /* \"#utility.yul\":6638:6646   */\n      lt\n        /* \"#utility.yul\":6635:6669   */\n      iszero\n      tag_198\n      jumpi\n        /* \"#utility.yul\":6649:6667   */\n      tag_199\n      tag_120\n      jump\t// in\n    tag_199:\n        /* \"#utility.yul\":6635:6669   */\n    tag_198:\n        /* \"#utility.yul\":6694:6695   */\n      dup3\n        /* \"#utility.yul\":6691:6692   */\n      dup3\n        /* \"#utility.yul\":6687:6696   */\n      sub\n        /* \"#utility.yul\":6679:6696   */\n      swap1\n      pop\n        /* \"#utility.yul\":6511:6702   */\n      swap3\n      swap2\n      pop\n      pop\n      jump\t// out\n        /* \"#utility.yul\":6708:6880   */\n    tag_123:\n        /* \"#utility.yul\":6848:6872   */\n      0x4e6f7420656e6f756768206567677320746f2062757900000000000000000000\n        /* \"#utility.yul\":6844:6845   */\n      0x00\n        /* \"#utility.yul\":6836:6842   */\n      dup3\n        /* \"#utility.yul\":6832:6846   */\n      add\n        /* \"#utility.yul\":6825:6873   */\n      mstore\n        /* \"#utility.yul\":6708:6880   */\n      pop\n      jump\t// out\n        /* \"#utility.yul\":6886:7252   */\n    tag_124:\n        /* \"#utility.yul\":7028:7031   */\n      0x00\n        /* \"#utility.yul\":7049:7116   */\n      tag_202\n        /* \"#utility.yul\":7113:7115   */\n      0x16\n        /* \"#utility.yul\":7108:7111   */\n      dup4\n        /* \"#utility.yul\":7049:7116   */\n      tag_117\n      jump\t// in\n    tag_202:\n        /* \"#utility.yul\":7042:7116   */\n      swap2\n      pop\n        /* \"#utility.yul\":7125:7218   */\n      tag_203\n        /* \"#utility.yul\":7214:7217   */\n      dup3\n        /* \"#utility.yul\":7125:7218   */\n      tag_123\n      jump\t// in\n    tag_203:\n        /* \"#utility.yul\":7243:7245   */\n      0x20\n        /* \"#utility.yul\":7238:7241   */\n      dup3\n        /* \"#utility.yul\":7234:7246   */\n      add\n        /* \"#utility.yul\":7227:7246   */\n      swap1\n      pop\n        /* \"#utility.yul\":6886:7252   */\n      swap2\n      swap1\n      pop\n      jump\t// out\n        /* \"#utility.yul\":7258:7677   */\n    tag_76:\n        /* \"#utility.yul\":7424:7428   */\n      0x00\n        /* \"#utility.yul\":7462:7464   */\n      0x20\n        /* \"#utility.yul\":7451:7460   */\n      dup3\n        /* \"#utility.yul\":7447:7465   */\n      add\n        /* \"#utility.yul\":7439:7465   */\n      swap1\n      pop\n        /* \"#utility.yul\":7511:7520   */\n      dup2\n        /* \"#utility.yul\":7505:7509   */\n      dup2\n        /* \"#utility.yul\":7501:7521   */\n      sub\n        /* \"#utility.yul\":7497:7498   */\n      0x00\n        /* \"#utility.yul\":7486:7495   */\n      dup4\n        /* \"#utility.yul\":7482:7499   */\n      add\n        /* \"#utility.yul\":7475:7522   */\n      mstore\n        /* \"#utility.yul\":7539:7670   */\n      tag_205\n        /* \"#utility.yul\":7665:7669   */\n      dup2\n        /* \"#utility.yul\":7539:7670   */\n      tag_124\n      jump\t// in\n    tag_205:\n        /* \"#utility.yul\":7531:7670   */\n      swap1\n      pop\n        /* \"#utility.yul\":7258:7677   */\n      swap2\n      swap1\n      pop\n      jump\t// out\n        /* \"#utility.yul\":7683:7854   */\n    tag_125:\n        /* \"#utility.yul\":7823:7846   */\n      0x4e6f7420656e6f756768206a616d20746f206275790000000000000000000000\n        /* \"#utility.yul\":7819:7820   */\n      0x00\n        /* \"#utility.yul\":7811:7817   */\n      dup3\n        /* \"#utility.yul\":7807:7821   */\n      add\n        /* \"#utility.yul\":7800:7847   */\n      mstore\n        /* \"#utility.yul\":7683:7854   */\n      pop\n      jump\t// out\n        /* \"#utility.yul\":7860:8226   */\n    tag_126:\n        /* \"#utility.yul\":8002:8005   */\n      0x00\n        /* \"#utility.yul\":8023:8090   */\n      tag_208\n        /* \"#utility.yul\":8087:8089   */\n      0x15\n        /* \"#utility.yul\":8082:8085   */\n      dup4\n        /* \"#utility.yul\":8023:8090   */\n      tag_117\n      jump\t// in\n    tag_208:\n        /* \"#utility.yul\":8016:8090   */\n      swap2\n      pop\n        /* \"#utility.yul\":8099:8192   */\n      tag_209\n        /* \"#utility.yul\":8188:8191   */\n      dup3\n        /* \"#utility.yul\":8099:8192   */\n      tag_125\n      jump\t// in\n    tag_209:\n        /* \"#utility.yul\":8217:8219   */\n      0x20\n        /* \"#utility.yul\":8212:8215   */\n      dup3\n        /* \"#utility.yul\":8208:8220   */\n      add\n        /* \"#utility.yul\":8201:8220   */\n      swap1\n      pop\n        /* \"#utility.yul\":7860:8226   */\n      swap2\n      swap1\n      pop\n      jump\t// out\n        /* \"#utility.yul\":8232:8651   */\n    tag_86:\n        /* \"#utility.yul\":8398:8402   */\n      0x00\n        /* \"#utility.yul\":8436:8438   */\n      0x20\n        /* \"#utility.yul\":8425:8434   */\n      dup3\n        /* \"#utility.yul\":8421:8439   */\n      add\n        /* \"#utility.yul\":8413:8439   */\n      swap1\n      pop\n        /* \"#utility.yul\":8485:8494   */\n      dup2\n        /* \"#utility.yul\":8479:8483   */\n      dup2\n        /* \"#utility.yul\":8475:8495   */\n      sub\n        /* \"#utility.yul\":8471:8472   */\n      0x00\n        /* \"#utility.yul\":8460:8469   */\n      dup4\n        /* \"#utility.yul\":8456:8473   */\n      add\n        /* \"#utility.yul\":8449:8496   */\n      mstore\n        /* \"#utility.yul\":8513:8644   */\n      tag_211\n        /* \"#utility.yul\":8639:8643   */\n      dup2\n        /* \"#utility.yul\":8513:8644   */\n      tag_126\n      jump\t// in\n    tag_211:\n        /* \"#utility.yul\":8505:8644   */\n      swap1\n      pop\n        /* \"#utility.yul\":8232:8651   */\n      swap2\n      swap1\n      pop\n      jump\t// out\n        /* \"#utility.yul\":8657:8890   */\n    tag_89:\n        /* \"#utility.yul\":8696:8699   */\n      0x00\n        /* \"#utility.yul\":8719:8743   */\n      tag_213\n        /* \"#utility.yul\":8737:8742   */\n      dup3\n        /* \"#utility.yul\":8719:8743   */\n      tag_106\n      jump\t// in\n    tag_213:\n        /* \"#utility.yul\":8710:8743   */\n      swap2\n      pop\n        /* \"#utility.yul\":8765:8831   */\n      0xffffffffffffffffffffffffffffffffffffffffffffffffffffffffffffffff\n        /* \"#utility.yul\":8758:8763   */\n      dup3\n        /* \"#utility.yul\":8755:8832   */\n      sub\n        /* \"#utility.yul\":8752:8855   */\n      tag_214\n      jumpi\n        /* \"#utility.yul\":8835:8853   */\n      tag_215\n      tag_120\n      jump\t// in\n    tag_215:\n        /* \"#utility.yul\":8752:8855   */\n    tag_214:\n        /* \"#utility.yul\":8882:8883   */\n      0x01\n        /* \"#utility.yul\":8875:8880   */\n      dup3\n        /* \"#utility.yul\":8871:8884   */\n      add\n        /* \"#utility.yul\":8864:8884   */\n      swap1\n      pop\n        /* \"#utility.yul\":8657:8890   */\n      swap2\n      swap1\n      pop\n      jump\t// out\n        /* \"#utility.yul\":8896:9360   */\n    tag_95:\n        /* \"#utility.yul\":9056:9060   */\n      0x00\n        /* \"#utility.yul\":9094:9096   */\n      0x60\n        /* \"#utility.yul\":9083:9092   */\n      dup3\n        /* \"#utility.yul\":9079:9097   */\n      add\n        /* \"#utility.yul\":9071:9097   */\n      swap1\n      pop\n        /* \"#utility.yul\":9107:9178   */\n      tag_217\n        /* \"#utility.yul\":9175:9176   */\n      0x00\n        /* \"#utility.yul\":9164:9173   */\n      dup4\n        /* \"#utility.yul\":9160:9177   */\n      add\n        /* \"#utility.yul\":9151:9157   */\n      dup7\n        /* \"#utility.yul\":9107:9178   */\n      tag_116\n      jump\t// in\n    tag_217:\n        /* \"#utility.yul\":9188:9271   */\n      tag_218\n        /* \"#utility.yul\":9267:9269   */\n      0x20\n        /* \"#utility.yul\":9256:9265   */\n      dup4\n        /* \"#utility.yul\":9252:9270   */\n      add\n        /* \"#utility.yul\":9243:9249   */\n      dup6\n        /* \"#utility.yul\":9188:9271   */\n      tag_115\n      jump\t// in\n    tag_218:\n        /* \"#utility.yul\":9281:9353   */\n      tag_219\n        /* \"#utility.yul\":9349:9351   */\n      0x40\n        /* \"#utility.yul\":9338:9347   */\n      dup4\n        /* \"#utility.yul\":9334:9352   */\n      add\n        /* \"#utility.yul\":9325:9331   */\n      dup5\n        /* \"#utility.yul\":9281:9353   */\n      tag_116\n      jump\t// in\n    tag_219:\n        /* \"#utility.yul\":8896:9360   */\n      swap5\n      swap4\n      pop\n      pop\n      pop\n      pop\n      jump\t// out\n        /* \"#utility.yul\":9366:9534   */\n    tag_127:\n        /* \"#utility.yul\":9506:9526   */\n      0x556e6b6e6f776e20707572636861736549640000000000000000000000000000\n        /* \"#utility.yul\":9502:9503   */\n      0x00\n        /* \"#utility.yul\":9494:9500   */\n      dup3\n        /* \"#utility.yul\":9490:9504   */\n      add\n        /* \"#utility.yul\":9483:9527   */\n      mstore\n        /* \"#utility.yul\":9366:9534   */\n      pop\n      jump\t// out\n        /* \"#utility.yul\":9540:9906   */\n    tag_128:\n        /* \"#utility.yul\":9682:9685   */\n      0x00\n        /* \"#utility.yul\":9703:9770   */\n      tag_222\n        /* \"#utility.yul\":9767:9769   */\n      0x12\n        /* \"#utility.yul\":9762:9765   */\n      dup4\n        /* \"#utility.yul\":9703:9770   */\n      tag_117\n      jump\t// in\n    tag_222:\n        /* \"#utility.yul\":9696:9770   */\n      swap2\n      pop\n        /* \"#utility.yul\":9779:9872   */\n      tag_223\n        /* \"#utility.yul\":9868:9871   */\n      dup3\n        /* \"#utility.yul\":9779:9872   */\n      tag_127\n      jump\t// in\n    tag_223:\n        /* \"#utility.yul\":9897:9899   */\n      0x20\n        /* \"#utility.yul\":9892:9895   */\n      dup3\n        /* \"#utility.yul\":9888:9900   */\n      add\n        /* \"#utility.yul\":9881:9900   */\n      swap1\n      pop\n        /* \"#utility.yul\":9540:9906   */\n      swap2\n      swap1\n      pop\n      jump\t// out\n        /* \"#utility.yul\":9912:10331   */\n    tag_100:\n        /* \"#utility.yul\":10078:10082   */\n      0x00\n        /* \"#utility.yul\":10116:10118   */\n      0x20\n        /* \"#utility.yul\":10105:10114   */\n      dup3\n        /* \"#utility.yul\":10101:10119   */\n      add\n        /* \"#utility.yul\":10093:10119   */\n      swap1\n      pop\n        /* \"#utility.yul\":10165:10174   */\n      dup2\n        /* \"#utility.yul\":10159:10163   */\n      dup2\n        /* \"#utility.yul\":10155:10175   */\n      sub\n        /* \"#utility.yul\":10151:10152   */\n      0x00\n        /* \"#utility.yul\":10140:10149   */\n      dup4\n        /* \"#utility.yul\":10136:10153   */\n      add\n        /* \"#utility.yul\":10129:10176   */\n      mstore\n        /* \"#utility.yul\":10193:10324   */\n      tag_225\n        /* \"#utility.yul\":10319:10323   */\n      dup2\n        /* \"#utility.yul\":10193:10324   */\n      tag_128\n      jump\t// in\n    tag_225:\n        /* \"#utility.yul\":10185:10324   */\n      swap1\n      pop\n        /* \"#utility.yul\":9912:10331   */\n      swap2\n      swap1\n      pop\n      jump\t// out\n\n    auxdata: 0xa2646970667358221220108f912f8e536f12fac0ced54b9925365e66c649356c075fdaf8d0bd3851104864736f6c634300080d0033\n}\n",
				"bytecode": {
					"linkReferences": {},
					"object": "608060405234801561001057600080fd5b50604051610db2380380610db2833981810160405281019061003291906100cb565b82600081905550816001819055508060028190555033600460006101000a81548173ffffffffffffffffffffffffffffffffffffffff021916908373ffffffffffffffffffffffffffffffffffffffff16021790555050505061011e565b600080fd5b6000819050919050565b6100a881610095565b81146100b357600080fd5b50565b6000815190506100c58161009f565b92915050565b6000806000606084860312156100e4576100e3610090565b5b60006100f2868287016100b6565b9350506020610103868287016100b6565b9250506040610114868287016100b6565b9150509250925092565b610c858061012d6000396000f3fe60806040526004361061003f5760003560e01c80631b54ac80146100445780633ccfd60b1461006d57806362f791c014610077578063754a5a5114610093575b600080fd5b34801561005057600080fd5b5061006b60048036038101906100669190610756565b6100d2565b005b610075610279565b005b610091600480360381019061008c9190610756565b610352565b005b34801561009f57600080fd5b506100ba60048036038101906100b59190610796565b610640565b6040516100c99392919061088a565b60405180910390f35b600460009054906101000a900473ffffffffffffffffffffffffffffffffffffffff1673ffffffffffffffffffffffffffffffffffffffff163373ffffffffffffffffffffffffffffffffffffffff1614610162576040517f08c379a00000000000000000000000000000000000000000000000000000000081526004016101599061091e565b60405180910390fd5b6001600381111561017657610175610804565b5b82600381111561018957610188610804565b5b036101ab578060008082825461019f919061096d565b9250508190555061023c565b600260038111156101bf576101be610804565b5b8260038111156101d2576101d1610804565b5b036101f55780600160008282546101e9919061096d565b9250508190555061023b565b60038081111561020857610207610804565b5b82600381111561021b5761021a610804565b5b0361023a578060026000828254610232919061096d565b925050819055505b5b5b7f12e3bb38ec8cd1c6d62c88b77f475833a978b109219e896e6a5d49240d378de7828260405161026d9291906109c3565b60405180910390a15050565b600460009054906101000a900473ffffffffffffffffffffffffffffffffffffffff1673ffffffffffffffffffffffffffffffffffffffff163373ffffffffffffffffffffffffffffffffffffffff1614610309576040517f08c379a00000000000000000000000000000000000000000000000000000000081526004016103009061091e565b60405180910390fd5b3073ffffffffffffffffffffffffffffffffffffffff166108fc479081150290604051600060405180830381858888f1935050505015801561034f573d6000803e3d6000fd5b50565b662386f26fc10000341461036557600080fd5b6001600381111561037957610378610804565b5b82600381111561038c5761038b610804565b5b036103f25760005481106103d5576040517f08c379a00000000000000000000000000000000000000000000000000000000081526004016103cc90610a38565b60405180910390fd5b806000808282546103e69190610a58565b9250508190555061050b565b6002600381111561040657610405610804565b5b82600381111561041957610418610804565b5b03610480576001548110610462576040517f08c379a000000000000000000000000000000000000000000000000000000000815260040161045990610ad8565b60405180910390fd5b80600160008282546104749190610a58565b9250508190555061050a565b60038081111561049357610492610804565b5b8260038111156104a6576104a5610804565b5b036105095760025481106104ef576040517f08c379a00000000000000000000000000000000000000000000000000000000081526004016104e690610b44565b60405180910390fd5b80600260008282546105019190610a58565b925050819055505b5b5b6003600081548092919061051e90610b64565b919050555060405180606001604052803373ffffffffffffffffffffffffffffffffffffffff16815260200183600381111561055d5761055c610804565b5b81526020018281525060056000600354815260200190815260200160002060008201518160000160006101000a81548173ffffffffffffffffffffffffffffffffffffffff021916908373ffffffffffffffffffffffffffffffffffffffff16021790555060208201518160000160146101000a81548160ff021916908360038111156105ed576105ec610804565b5b0217905550604082015181600101559050507f9138d6824e59d10af0b9bf81f70adc89aca8c8fcd9c1faf740f29b3ba94e5970600354838360405161063493929190610bac565b60405180910390a15050565b6000806000808411801561065657506003548411155b610695576040517f08c379a000000000000000000000000000000000000000000000000000000000815260040161068c90610c2f565b60405180910390fd5b60006005600086815260200190815260200160002090508060000160009054906101000a900473ffffffffffffffffffffffffffffffffffffffff168160000160149054906101000a900460ff168260010154935093509350509193909250565b600080fd5b6004811061070857600080fd5b50565b60008135905061071a816106fb565b92915050565b6000819050919050565b61073381610720565b811461073e57600080fd5b50565b6000813590506107508161072a565b92915050565b6000806040838503121561076d5761076c6106f6565b5b600061077b8582860161070b565b925050602061078c85828601610741565b9150509250929050565b6000602082840312156107ac576107ab6106f6565b5b60006107ba84828501610741565b91505092915050565b600073ffffffffffffffffffffffffffffffffffffffff82169050919050565b60006107ee826107c3565b9050919050565b6107fe816107e3565b82525050565b7f4e487b7100000000000000000000000000000000000000000000000000000000600052602160045260246000fd5b6004811061084457610843610804565b5b50565b600081905061085582610833565b919050565b600061086582610847565b9050919050565b6108758161085a565b82525050565b61088481610720565b82525050565b600060608201905061089f60008301866107f5565b6108ac602083018561086c565b6108b9604083018461087b565b949350505050565b600082825260208201905092915050565b7f4f6e6c79206f776e65722063616e2063616c6c20616464000000000000000000600082015250565b60006109086017836108c1565b9150610913826108d2565b602082019050919050565b60006020820190508181036000830152610937816108fb565b9050919050565b7f4e487b7100000000000000000000000000000000000000000000000000000000600052601160045260246000fd5b600061097882610720565b915061098383610720565b9250827fffffffffffffffffffffffffffffffffffffffffffffffffffffffffffffffff038211156109b8576109b761093e565b5b828201905092915050565b60006040820190506109d8600083018561086c565b6109e5602083018461087b565b9392505050565b7f4e6f7420656e6f75676820627265616420746f20627579000000000000000000600082015250565b6000610a226017836108c1565b9150610a2d826109ec565b602082019050919050565b60006020820190508181036000830152610a5181610a15565b9050919050565b6000610a6382610720565b9150610a6e83610720565b925082821015610a8157610a8061093e565b5b828203905092915050565b7f4e6f7420656e6f756768206567677320746f2062757900000000000000000000600082015250565b6000610ac26016836108c1565b9150610acd82610a8c565b602082019050919050565b60006020820190508181036000830152610af181610ab5565b9050919050565b7f4e6f7420656e6f756768206a616d20746f206275790000000000000000000000600082015250565b6000610b2e6015836108c1565b9150610b3982610af8565b602082019050919050565b60006020820190508181036000830152610b5d81610b21565b9050919050565b6000610b6f82610720565b91507fffffffffffffffffffffffffffffffffffffffffffffffffffffffffffffffff8203610ba157610ba061093e565b5b600182019050919050565b6000606082019050610bc1600083018661087b565b610bce602083018561086c565b610bdb604083018461087b565b949350505050565b7f556e6b6e6f776e20707572636861736549640000000000000000000000000000600082015250565b6000610c196012836108c1565b9150610c2482610be3565b602082019050919050565b60006020820190508181036000830152610c4881610c0c565b905091905056fea2646970667358221220108f912f8e536f12fac0ced54b9925365e66c649356c075fdaf8d0bd3851104864736f6c634300080d0033",
					"opcodes": "PUSH1 0x80 PUSH1 0x40 MSTORE CALLVALUE DUP1 ISZERO PUSH2 0x10 JUMPI PUSH1 0x0 DUP1 REVERT JUMPDEST POP PUSH1 0x40 MLOAD PUSH2 0xDB2 CODESIZE SUB DUP1 PUSH2 0xDB2 DUP4 CODECOPY DUP2 DUP2 ADD PUSH1 0x40 MSTORE DUP2 ADD SWAP1 PUSH2 0x32 SWAP2 SWAP1 PUSH2 0xCB JUMP JUMPDEST DUP3 PUSH1 0x0 DUP2 SWAP1 SSTORE POP DUP2 PUSH1 0x1 DUP2 SWAP1 SSTORE POP DUP1 PUSH1 0x2 DUP2 SWAP1 SSTORE POP CALLER PUSH1 0x4 PUSH1 0x0 PUSH2 0x100 EXP DUP2 SLOAD DUP2 PUSH20 0xFFFFFFFFFFFFFFFFFFFFFFFFFFFFFFFFFFFFFFFF MUL NOT AND SWAP1 DUP4 PUSH20 0xFFFFFFFFFFFFFFFFFFFFFFFFFFFFFFFFFFFFFFFF AND MUL OR SWAP1 SSTORE POP POP POP POP PUSH2 0x11E JUMP JUMPDEST PUSH1 0x0 DUP1 REVERT JUMPDEST PUSH1 0x0 DUP2 SWAP1 POP SWAP2 SWAP1 POP JUMP JUMPDEST PUSH2 0xA8 DUP2 PUSH2 0x95 JUMP JUMPDEST DUP2 EQ PUSH2 0xB3 JUMPI PUSH1 0x0 DUP1 REVERT JUMPDEST POP JUMP JUMPDEST PUSH1 0x0 DUP2 MLOAD SWAP1 POP PUSH2 0xC5 DUP2 PUSH2 0x9F JUMP JUMPDEST SWAP3 SWAP2 POP POP JUMP JUMPDEST PUSH1 0x0 DUP1 PUSH1 0x0 PUSH1 0x60 DUP5 DUP7 SUB SLT ISZERO PUSH2 0xE4 JUMPI PUSH2 0xE3 PUSH2 0x90 JUMP JUMPDEST JUMPDEST PUSH1 0x0 PUSH2 0xF2 DUP7 DUP3 DUP8 ADD PUSH2 0xB6 JUMP JUMPDEST SWAP4 POP POP PUSH1 0x20 PUSH2 0x103 DUP7 DUP3 DUP8 ADD PUSH2 0xB6 JUMP JUMPDEST SWAP3 POP POP PUSH1 0x40 PUSH2 0x114 DUP7 DUP3 DUP8 ADD PUSH2 0xB6 JUMP JUMPDEST SWAP2 POP POP SWAP3 POP SWAP3 POP SWAP3 JUMP JUMPDEST PUSH2 0xC85 DUP1 PUSH2 0x12D PUSH1 0x0 CODECOPY PUSH1 0x0 RETURN INVALID PUSH1 0x80 PUSH1 0x40 MSTORE PUSH1 0x4 CALLDATASIZE LT PUSH2 0x3F JUMPI PUSH1 0x0 CALLDATALOAD PUSH1 0xE0 SHR DUP1 PUSH4 0x1B54AC80 EQ PUSH2 0x44 JUMPI DUP1 PUSH4 0x3CCFD60B EQ PUSH2 0x6D JUMPI DUP1 PUSH4 0x62F791C0 EQ PUSH2 0x77 JUMPI DUP1 PUSH4 0x754A5A51 EQ PUSH2 0x93 JUMPI JUMPDEST PUSH1 0x0 DUP1 REVERT JUMPDEST CALLVALUE DUP1 ISZERO PUSH2 0x50 JUMPI PUSH1 0x0 DUP1 REVERT JUMPDEST POP PUSH2 0x6B PUSH1 0x4 DUP1 CALLDATASIZE SUB DUP2 ADD SWAP1 PUSH2 0x66 SWAP2 SWAP1 PUSH2 0x756 JUMP JUMPDEST PUSH2 0xD2 JUMP JUMPDEST STOP JUMPDEST PUSH2 0x75 PUSH2 0x279 JUMP JUMPDEST STOP JUMPDEST PUSH2 0x91 PUSH1 0x4 DUP1 CALLDATASIZE SUB DUP2 ADD SWAP1 PUSH2 0x8C SWAP2 SWAP1 PUSH2 0x756 JUMP JUMPDEST PUSH2 0x352 JUMP JUMPDEST STOP JUMPDEST CALLVALUE DUP1 ISZERO PUSH2 0x9F JUMPI PUSH1 0x0 DUP1 REVERT JUMPDEST POP PUSH2 0xBA PUSH1 0x4 DUP1 CALLDATASIZE SUB DUP2 ADD SWAP1 PUSH2 0xB5 SWAP2 SWAP1 PUSH2 0x796 JUMP JUMPDEST PUSH2 0x640 JUMP JUMPDEST PUSH1 0x40 MLOAD PUSH2 0xC9 SWAP4 SWAP3 SWAP2 SWAP1 PUSH2 0x88A JUMP JUMPDEST PUSH1 0x40 MLOAD DUP1 SWAP2 SUB SWAP1 RETURN JUMPDEST PUSH1 0x4 PUSH1 0x0 SWAP1 SLOAD SWAP1 PUSH2 0x100 EXP SWAP1 DIV PUSH20 0xFFFFFFFFFFFFFFFFFFFFFFFFFFFFFFFFFFFFFFFF AND PUSH20 0xFFFFFFFFFFFFFFFFFFFFFFFFFFFFFFFFFFFFFFFF AND CALLER PUSH20 0xFFFFFFFFFFFFFFFFFFFFFFFFFFFFFFFFFFFFFFFF AND EQ PUSH2 0x162 JUMPI PUSH1 0x40 MLOAD PUSH32 0x8C379A000000000000000000000000000000000000000000000000000000000 DUP2 MSTORE PUSH1 0x4 ADD PUSH2 0x159 SWAP1 PUSH2 0x91E JUMP JUMPDEST PUSH1 0x40 MLOAD DUP1 SWAP2 SUB SWAP1 REVERT JUMPDEST PUSH1 0x1 PUSH1 0x3 DUP2 GT ISZERO PUSH2 0x176 JUMPI PUSH2 0x175 PUSH2 0x804 JUMP JUMPDEST JUMPDEST DUP3 PUSH1 0x3 DUP2 GT ISZERO PUSH2 0x189 JUMPI PUSH2 0x188 PUSH2 0x804 JUMP JUMPDEST JUMPDEST SUB PUSH2 0x1AB JUMPI DUP1 PUSH1 0x0 DUP1 DUP3 DUP3 SLOAD PUSH2 0x19F SWAP2 SWAP1 PUSH2 0x96D JUMP JUMPDEST SWAP3 POP POP DUP2 SWAP1 SSTORE POP PUSH2 0x23C JUMP JUMPDEST PUSH1 0x2 PUSH1 0x3 DUP2 GT ISZERO PUSH2 0x1BF JUMPI PUSH2 0x1BE PUSH2 0x804 JUMP JUMPDEST JUMPDEST DUP3 PUSH1 0x3 DUP2 GT ISZERO PUSH2 0x1D2 JUMPI PUSH2 0x1D1 PUSH2 0x804 JUMP JUMPDEST JUMPDEST SUB PUSH2 0x1F5 JUMPI DUP1 PUSH1 0x1 PUSH1 0x0 DUP3 DUP3 SLOAD PUSH2 0x1E9 SWAP2 SWAP1 PUSH2 0x96D JUMP JUMPDEST SWAP3 POP POP DUP2 SWAP1 SSTORE POP PUSH2 0x23B JUMP JUMPDEST PUSH1 0x3 DUP1 DUP2 GT ISZERO PUSH2 0x208 JUMPI PUSH2 0x207 PUSH2 0x804 JUMP JUMPDEST JUMPDEST DUP3 PUSH1 0x3 DUP2 GT ISZERO PUSH2 0x21B JUMPI PUSH2 0x21A PUSH2 0x804 JUMP JUMPDEST JUMPDEST SUB PUSH2 0x23A JUMPI DUP1 PUSH1 0x2 PUSH1 0x0 DUP3 DUP3 SLOAD PUSH2 0x232 SWAP2 SWAP1 PUSH2 0x96D JUMP JUMPDEST SWAP3 POP POP DUP2 SWAP1 SSTORE POP JUMPDEST JUMPDEST JUMPDEST PUSH32 0x12E3BB38EC8CD1C6D62C88B77F475833A978B109219E896E6A5D49240D378DE7 DUP3 DUP3 PUSH1 0x40 MLOAD PUSH2 0x26D SWAP3 SWAP2 SWAP1 PUSH2 0x9C3 JUMP JUMPDEST PUSH1 0x40 MLOAD DUP1 SWAP2 SUB SWAP1 LOG1 POP POP JUMP JUMPDEST PUSH1 0x4 PUSH1 0x0 SWAP1 SLOAD SWAP1 PUSH2 0x100 EXP SWAP1 DIV PUSH20 0xFFFFFFFFFFFFFFFFFFFFFFFFFFFFFFFFFFFFFFFF AND PUSH20 0xFFFFFFFFFFFFFFFFFFFFFFFFFFFFFFFFFFFFFFFF AND CALLER PUSH20 0xFFFFFFFFFFFFFFFFFFFFFFFFFFFFFFFFFFFFFFFF AND EQ PUSH2 0x309 JUMPI PUSH1 0x40 MLOAD PUSH32 0x8C379A000000000000000000000000000000000000000000000000000000000 DUP2 MSTORE PUSH1 0x4 ADD PUSH2 0x300 SWAP1 PUSH2 0x91E JUMP JUMPDEST PUSH1 0x40 MLOAD DUP1 SWAP2 SUB SWAP1 REVERT JUMPDEST ADDRESS PUSH20 0xFFFFFFFFFFFFFFFFFFFFFFFFFFFFFFFFFFFFFFFF AND PUSH2 0x8FC SELFBALANCE SWAP1 DUP2 ISZERO MUL SWAP1 PUSH1 0x40 MLOAD PUSH1 0x0 PUSH1 0x40 MLOAD DUP1 DUP4 SUB DUP2 DUP6 DUP9 DUP9 CALL SWAP4 POP POP POP POP ISZERO DUP1 ISZERO PUSH2 0x34F JUMPI RETURNDATASIZE PUSH1 0x0 DUP1 RETURNDATACOPY RETURNDATASIZE PUSH1 0x0 REVERT JUMPDEST POP JUMP JUMPDEST PUSH7 0x2386F26FC10000 CALLVALUE EQ PUSH2 0x365 JUMPI PUSH1 0x0 DUP1 REVERT JUMPDEST PUSH1 0x1 PUSH1 0x3 DUP2 GT ISZERO PUSH2 0x379 JUMPI PUSH2 0x378 PUSH2 0x804 JUMP JUMPDEST JUMPDEST DUP3 PUSH1 0x3 DUP2 GT ISZERO PUSH2 0x38C JUMPI PUSH2 0x38B PUSH2 0x804 JUMP JUMPDEST JUMPDEST SUB PUSH2 0x3F2 JUMPI PUSH1 0x0 SLOAD DUP2 LT PUSH2 0x3D5 JUMPI PUSH1 0x40 MLOAD PUSH32 0x8C379A000000000000000000000000000000000000000000000000000000000 DUP2 MSTORE PUSH1 0x4 ADD PUSH2 0x3CC SWAP1 PUSH2 0xA38 JUMP JUMPDEST PUSH1 0x40 MLOAD DUP1 SWAP2 SUB SWAP1 REVERT JUMPDEST DUP1 PUSH1 0x0 DUP1 DUP3 DUP3 SLOAD PUSH2 0x3E6 SWAP2 SWAP1 PUSH2 0xA58 JUMP JUMPDEST SWAP3 POP POP DUP2 SWAP1 SSTORE POP PUSH2 0x50B JUMP JUMPDEST PUSH1 0x2 PUSH1 0x3 DUP2 GT ISZERO PUSH2 0x406 JUMPI PUSH2 0x405 PUSH2 0x804 JUMP JUMPDEST JUMPDEST DUP3 PUSH1 0x3 DUP2 GT ISZERO PUSH2 0x419 JUMPI PUSH2 0x418 PUSH2 0x804 JUMP JUMPDEST JUMPDEST SUB PUSH2 0x480 JUMPI PUSH1 0x1 SLOAD DUP2 LT PUSH2 0x462 JUMPI PUSH1 0x40 MLOAD PUSH32 0x8C379A000000000000000000000000000000000000000000000000000000000 DUP2 MSTORE PUSH1 0x4 ADD PUSH2 0x459 SWAP1 PUSH2 0xAD8 JUMP JUMPDEST PUSH1 0x40 MLOAD DUP1 SWAP2 SUB SWAP1 REVERT JUMPDEST DUP1 PUSH1 0x1 PUSH1 0x0 DUP3 DUP3 SLOAD PUSH2 0x474 SWAP2 SWAP1 PUSH2 0xA58 JUMP JUMPDEST SWAP3 POP POP DUP2 SWAP1 SSTORE POP PUSH2 0x50A JUMP JUMPDEST PUSH1 0x3 DUP1 DUP2 GT ISZERO PUSH2 0x493 JUMPI PUSH2 0x492 PUSH2 0x804 JUMP JUMPDEST JUMPDEST DUP3 PUSH1 0x3 DUP2 GT ISZERO PUSH2 0x4A6 JUMPI PUSH2 0x4A5 PUSH2 0x804 JUMP JUMPDEST JUMPDEST SUB PUSH2 0x509 JUMPI PUSH1 0x2 SLOAD DUP2 LT PUSH2 0x4EF JUMPI PUSH1 0x40 MLOAD PUSH32 0x8C379A000000000000000000000000000000000000000000000000000000000 DUP2 MSTORE PUSH1 0x4 ADD PUSH2 0x4E6 SWAP1 PUSH2 0xB44 JUMP JUMPDEST PUSH1 0x40 MLOAD DUP1 SWAP2 SUB SWAP1 REVERT JUMPDEST DUP1 PUSH1 0x2 PUSH1 0x0 DUP3 DUP3 SLOAD PUSH2 0x501 SWAP2 SWAP1 PUSH2 0xA58 JUMP JUMPDEST SWAP3 POP POP DUP2 SWAP1 SSTORE POP JUMPDEST JUMPDEST JUMPDEST PUSH1 0x3 PUSH1 0x0 DUP2 SLOAD DUP1 SWAP3 SWAP2 SWAP1 PUSH2 0x51E SWAP1 PUSH2 0xB64 JUMP JUMPDEST SWAP2 SWAP1 POP SSTORE POP PUSH1 0x40 MLOAD DUP1 PUSH1 0x60 ADD PUSH1 0x40 MSTORE DUP1 CALLER PUSH20 0xFFFFFFFFFFFFFFFFFFFFFFFFFFFFFFFFFFFFFFFF AND DUP2 MSTORE PUSH1 0x20 ADD DUP4 PUSH1 0x3 DUP2 GT ISZERO PUSH2 0x55D JUMPI PUSH2 0x55C PUSH2 0x804 JUMP JUMPDEST JUMPDEST DUP2 MSTORE PUSH1 0x20 ADD DUP3 DUP2 MSTORE POP PUSH1 0x5 PUSH1 0x0 PUSH1 0x3 SLOAD DUP2 MSTORE PUSH1 0x20 ADD SWAP1 DUP2 MSTORE PUSH1 0x20 ADD PUSH1 0x0 KECCAK256 PUSH1 0x0 DUP3 ADD MLOAD DUP2 PUSH1 0x0 ADD PUSH1 0x0 PUSH2 0x100 EXP DUP2 SLOAD DUP2 PUSH20 0xFFFFFFFFFFFFFFFFFFFFFFFFFFFFFFFFFFFFFFFF MUL NOT AND SWAP1 DUP4 PUSH20 0xFFFFFFFFFFFFFFFFFFFFFFFFFFFFFFFFFFFFFFFF AND MUL OR SWAP1 SSTORE POP PUSH1 0x20 DUP3 ADD MLOAD DUP2 PUSH1 0x0 ADD PUSH1 0x14 PUSH2 0x100 EXP DUP2 SLOAD DUP2 PUSH1 0xFF MUL NOT AND SWAP1 DUP4 PUSH1 0x3 DUP2 GT ISZERO PUSH2 0x5ED JUMPI PUSH2 0x5EC PUSH2 0x804 JUMP JUMPDEST JUMPDEST MUL OR SWAP1 SSTORE POP PUSH1 0x40 DUP3 ADD MLOAD DUP2 PUSH1 0x1 ADD SSTORE SWAP1 POP POP PUSH32 0x9138D6824E59D10AF0B9BF81F70ADC89ACA8C8FCD9C1FAF740F29B3BA94E5970 PUSH1 0x3 SLOAD DUP4 DUP4 PUSH1 0x40 MLOAD PUSH2 0x634 SWAP4 SWAP3 SWAP2 SWAP1 PUSH2 0xBAC JUMP JUMPDEST PUSH1 0x40 MLOAD DUP1 SWAP2 SUB SWAP1 LOG1 POP POP JUMP JUMPDEST PUSH1 0x0 DUP1 PUSH1 0x0 DUP1 DUP5 GT DUP1 ISZERO PUSH2 0x656 JUMPI POP PUSH1 0x3 SLOAD DUP5 GT ISZERO JUMPDEST PUSH2 0x695 JUMPI PUSH1 0x40 MLOAD PUSH32 0x8C379A000000000000000000000000000000000000000000000000000000000 DUP2 MSTORE PUSH1 0x4 ADD PUSH2 0x68C SWAP1 PUSH2 0xC2F JUMP JUMPDEST PUSH1 0x40 MLOAD DUP1 SWAP2 SUB SWAP1 REVERT JUMPDEST PUSH1 0x0 PUSH1 0x5 PUSH1 0x0 DUP7 DUP2 MSTORE PUSH1 0x20 ADD SWAP1 DUP2 MSTORE PUSH1 0x20 ADD PUSH1 0x0 KECCAK256 SWAP1 POP DUP1 PUSH1 0x0 ADD PUSH1 0x0 SWAP1 SLOAD SWAP1 PUSH2 0x100 EXP SWAP1 DIV PUSH20 0xFFFFFFFFFFFFFFFFFFFFFFFFFFFFFFFFFFFFFFFF AND DUP2 PUSH1 0x0 ADD PUSH1 0x14 SWAP1 SLOAD SWAP1 PUSH2 0x100 EXP SWAP1 DIV PUSH1 0xFF AND DUP3 PUSH1 0x1 ADD SLOAD SWAP4 POP SWAP4 POP SWAP4 POP POP SWAP2 SWAP4 SWAP1 SWAP3 POP JUMP JUMPDEST PUSH1 0x0 DUP1 REVERT JUMPDEST PUSH1 0x4 DUP2 LT PUSH2 0x708 JUMPI PUSH1 0x0 DUP1 REVERT JUMPDEST POP JUMP JUMPDEST PUSH1 0x0 DUP2 CALLDATALOAD SWAP1 POP PUSH2 0x71A DUP2 PUSH2 0x6FB JUMP JUMPDEST SWAP3 SWAP2 POP POP JUMP JUMPDEST PUSH1 0x0 DUP2 SWAP1 POP SWAP2 SWAP1 POP JUMP JUMPDEST PUSH2 0x733 DUP2 PUSH2 0x720 JUMP JUMPDEST DUP2 EQ PUSH2 0x73E JUMPI PUSH1 0x0 DUP1 REVERT JUMPDEST POP JUMP JUMPDEST PUSH1 0x0 DUP2 CALLDATALOAD SWAP1 POP PUSH2 0x750 DUP2 PUSH2 0x72A JUMP JUMPDEST SWAP3 SWAP2 POP POP JUMP JUMPDEST PUSH1 0x0 DUP1 PUSH1 0x40 DUP4 DUP6 SUB SLT ISZERO PUSH2 0x76D JUMPI PUSH2 0x76C PUSH2 0x6F6 JUMP JUMPDEST JUMPDEST PUSH1 0x0 PUSH2 0x77B DUP6 DUP3 DUP7 ADD PUSH2 0x70B JUMP JUMPDEST SWAP3 POP POP PUSH1 0x20 PUSH2 0x78C DUP6 DUP3 DUP7 ADD PUSH2 0x741 JUMP JUMPDEST SWAP2 POP POP SWAP3 POP SWAP3 SWAP1 POP JUMP JUMPDEST PUSH1 0x0 PUSH1 0x20 DUP3 DUP5 SUB SLT ISZERO PUSH2 0x7AC JUMPI PUSH2 0x7AB PUSH2 0x6F6 JUMP JUMPDEST JUMPDEST PUSH1 0x0 PUSH2 0x7BA DUP5 DUP3 DUP6 ADD PUSH2 0x741 JUMP JUMPDEST SWAP2 POP POP SWAP3 SWAP2 POP POP JUMP JUMPDEST PUSH1 0x0 PUSH20 0xFFFFFFFFFFFFFFFFFFFFFFFFFFFFFFFFFFFFFFFF DUP3 AND SWAP1 POP SWAP2 SWAP1 POP JUMP JUMPDEST PUSH1 0x0 PUSH2 0x7EE DUP3 PUSH2 0x7C3 JUMP JUMPDEST SWAP1 POP SWAP2 SWAP1 POP JUMP JUMPDEST PUSH2 0x7FE DUP2 PUSH2 0x7E3 JUMP JUMPDEST DUP3 MSTORE POP POP JUMP JUMPDEST PUSH32 0x4E487B7100000000000000000000000000000000000000000000000000000000 PUSH1 0x0 MSTORE PUSH1 0x21 PUSH1 0x4 MSTORE PUSH1 0x24 PUSH1 0x0 REVERT JUMPDEST PUSH1 0x4 DUP2 LT PUSH2 0x844 JUMPI PUSH2 0x843 PUSH2 0x804 JUMP JUMPDEST JUMPDEST POP JUMP JUMPDEST PUSH1 0x0 DUP2 SWAP1 POP PUSH2 0x855 DUP3 PUSH2 0x833 JUMP JUMPDEST SWAP2 SWAP1 POP JUMP JUMPDEST PUSH1 0x0 PUSH2 0x865 DUP3 PUSH2 0x847 JUMP JUMPDEST SWAP1 POP SWAP2 SWAP1 POP JUMP JUMPDEST PUSH2 0x875 DUP2 PUSH2 0x85A JUMP JUMPDEST DUP3 MSTORE POP POP JUMP JUMPDEST PUSH2 0x884 DUP2 PUSH2 0x720 JUMP JUMPDEST DUP3 MSTORE POP POP JUMP JUMPDEST PUSH1 0x0 PUSH1 0x60 DUP3 ADD SWAP1 POP PUSH2 0x89F PUSH1 0x0 DUP4 ADD DUP7 PUSH2 0x7F5 JUMP JUMPDEST PUSH2 0x8AC PUSH1 0x20 DUP4 ADD DUP6 PUSH2 0x86C JUMP JUMPDEST PUSH2 0x8B9 PUSH1 0x40 DUP4 ADD DUP5 PUSH2 0x87B JUMP JUMPDEST SWAP5 SWAP4 POP POP POP POP JUMP JUMPDEST PUSH1 0x0 DUP3 DUP3 MSTORE PUSH1 0x20 DUP3 ADD SWAP1 POP SWAP3 SWAP2 POP POP JUMP JUMPDEST PUSH32 0x4F6E6C79206F776E65722063616E2063616C6C20616464000000000000000000 PUSH1 0x0 DUP3 ADD MSTORE POP JUMP JUMPDEST PUSH1 0x0 PUSH2 0x908 PUSH1 0x17 DUP4 PUSH2 0x8C1 JUMP JUMPDEST SWAP2 POP PUSH2 0x913 DUP3 PUSH2 0x8D2 JUMP JUMPDEST PUSH1 0x20 DUP3 ADD SWAP1 POP SWAP2 SWAP1 POP JUMP JUMPDEST PUSH1 0x0 PUSH1 0x20 DUP3 ADD SWAP1 POP DUP2 DUP2 SUB PUSH1 0x0 DUP4 ADD MSTORE PUSH2 0x937 DUP2 PUSH2 0x8FB JUMP JUMPDEST SWAP1 POP SWAP2 SWAP1 POP JUMP JUMPDEST PUSH32 0x4E487B7100000000000000000000000000000000000000000000000000000000 PUSH1 0x0 MSTORE PUSH1 0x11 PUSH1 0x4 MSTORE PUSH1 0x24 PUSH1 0x0 REVERT JUMPDEST PUSH1 0x0 PUSH2 0x978 DUP3 PUSH2 0x720 JUMP JUMPDEST SWAP2 POP PUSH2 0x983 DUP4 PUSH2 0x720 JUMP JUMPDEST SWAP3 POP DUP3 PUSH32 0xFFFFFFFFFFFFFFFFFFFFFFFFFFFFFFFFFFFFFFFFFFFFFFFFFFFFFFFFFFFFFFFF SUB DUP3 GT ISZERO PUSH2 0x9B8 JUMPI PUSH2 0x9B7 PUSH2 0x93E JUMP JUMPDEST JUMPDEST DUP3 DUP3 ADD SWAP1 POP SWAP3 SWAP2 POP POP JUMP JUMPDEST PUSH1 0x0 PUSH1 0x40 DUP3 ADD SWAP1 POP PUSH2 0x9D8 PUSH1 0x0 DUP4 ADD DUP6 PUSH2 0x86C JUMP JUMPDEST PUSH2 0x9E5 PUSH1 0x20 DUP4 ADD DUP5 PUSH2 0x87B JUMP JUMPDEST SWAP4 SWAP3 POP POP POP JUMP JUMPDEST PUSH32 0x4E6F7420656E6F75676820627265616420746F20627579000000000000000000 PUSH1 0x0 DUP3 ADD MSTORE POP JUMP JUMPDEST PUSH1 0x0 PUSH2 0xA22 PUSH1 0x17 DUP4 PUSH2 0x8C1 JUMP JUMPDEST SWAP2 POP PUSH2 0xA2D DUP3 PUSH2 0x9EC JUMP JUMPDEST PUSH1 0x20 DUP3 ADD SWAP1 POP SWAP2 SWAP1 POP JUMP JUMPDEST PUSH1 0x0 PUSH1 0x20 DUP3 ADD SWAP1 POP DUP2 DUP2 SUB PUSH1 0x0 DUP4 ADD MSTORE PUSH2 0xA51 DUP2 PUSH2 0xA15 JUMP JUMPDEST SWAP1 POP SWAP2 SWAP1 POP JUMP JUMPDEST PUSH1 0x0 PUSH2 0xA63 DUP3 PUSH2 0x720 JUMP JUMPDEST SWAP2 POP PUSH2 0xA6E DUP4 PUSH2 0x720 JUMP JUMPDEST SWAP3 POP DUP3 DUP3 LT ISZERO PUSH2 0xA81 JUMPI PUSH2 0xA80 PUSH2 0x93E JUMP JUMPDEST JUMPDEST DUP3 DUP3 SUB SWAP1 POP SWAP3 SWAP2 POP POP JUMP JUMPDEST PUSH32 0x4E6F7420656E6F756768206567677320746F2062757900000000000000000000 PUSH1 0x0 DUP3 ADD MSTORE POP JUMP JUMPDEST PUSH1 0x0 PUSH2 0xAC2 PUSH1 0x16 DUP4 PUSH2 0x8C1 JUMP JUMPDEST SWAP2 POP PUSH2 0xACD DUP3 PUSH2 0xA8C JUMP JUMPDEST PUSH1 0x20 DUP3 ADD SWAP1 POP SWAP2 SWAP1 POP JUMP JUMPDEST PUSH1 0x0 PUSH1 0x20 DUP3 ADD SWAP1 POP DUP2 DUP2 SUB PUSH1 0x0 DUP4 ADD MSTORE PUSH2 0xAF1 DUP2 PUSH2 0xAB5 JUMP JUMPDEST SWAP1 POP SWAP2 SWAP1 POP JUMP JUMPDEST PUSH32 0x4E6F7420656E6F756768206A616D20746F206275790000000000000000000000 PUSH1 0x0 DUP3 ADD MSTORE POP JUMP JUMPDEST PUSH1 0x0 PUSH2 0xB2E PUSH1 0x15 DUP4 PUSH2 0x8C1 JUMP JUMPDEST SWAP2 POP PUSH2 0xB39 DUP3 PUSH2 0xAF8 JUMP JUMPDEST PUSH1 0x20 DUP3 ADD SWAP1 POP SWAP2 SWAP1 POP JUMP JUMPDEST PUSH1 0x0 PUSH1 0x20 DUP3 ADD SWAP1 POP DUP2 DUP2 SUB PUSH1 0x0 DUP4 ADD MSTORE PUSH2 0xB5D DUP2 PUSH2 0xB21 JUMP JUMPDEST SWAP1 POP SWAP2 SWAP1 POP JUMP JUMPDEST PUSH1 0x0 PUSH2 0xB6F DUP3 PUSH2 0x720 JUMP JUMPDEST SWAP2 POP PUSH32 0xFFFFFFFFFFFFFFFFFFFFFFFFFFFFFFFFFFFFFFFFFFFFFFFFFFFFFFFFFFFFFFFF DUP3 SUB PUSH2 0xBA1 JUMPI PUSH2 0xBA0 PUSH2 0x93E JUMP JUMPDEST JUMPDEST PUSH1 0x1 DUP3 ADD SWAP1 POP SWAP2 SWAP1 POP JUMP JUMPDEST PUSH1 0x0 PUSH1 0x60 DUP3 ADD SWAP1 POP PUSH2 0xBC1 PUSH1 0x0 DUP4 ADD DUP7 PUSH2 0x87B JUMP JUMPDEST PUSH2 0xBCE PUSH1 0x20 DUP4 ADD DUP6 PUSH2 0x86C JUMP JUMPDEST PUSH2 0xBDB PUSH1 0x40 DUP4 ADD DUP5 PUSH2 0x87B JUMP JUMPDEST SWAP5 SWAP4 POP POP POP POP JUMP JUMPDEST PUSH32 0x556E6B6E6F776E20707572636861736549640000000000000000000000000000 PUSH1 0x0 DUP3 ADD MSTORE POP JUMP JUMPDEST PUSH1 0x0 PUSH2 0xC19 PUSH1 0x12 DUP4 PUSH2 0x8C1 JUMP JUMPDEST SWAP2 POP PUSH2 0xC24 DUP3 PUSH2 0xBE3 JUMP JUMPDEST PUSH1 0x20 DUP3 ADD SWAP1 POP SWAP2 SWAP1 POP JUMP JUMPDEST PUSH1 0x0 PUSH1 0x20 DUP3 ADD SWAP1 POP DUP2 DUP2 SUB PUSH1 0x0 DUP4 ADD MSTORE PUSH2 0xC48 DUP2 PUSH2 0xC0C JUMP JUMPDEST SWAP1 POP SWAP2 SWAP1 POP JUMP INVALID LOG2 PUSH5 0x6970667358 0x22 SLT KECCAK256 LT DUP16 SWAP2 0x2F DUP15 MSTORE8 PUSH16 0x12FAC0CED54B9925365E66C649356C07 0x5F 0xDA 0xF8 0xD0 0xBD CODESIZE MLOAD LT BASEFEE PUSH5 0x736F6C6343 STOP ADDMOD 0xD STOP CALLER "
				},
				"gasEstimates": {
					"creation": {
						"codeDepositCost": "641000",
						"executionCost": "infinite",
						"totalCost": "infinite"
					},
					"external": {
						"add(uint8,uint256)": "infinite",
						"buy(uint8,uint256)": "infinite",
						"cashRegister(uint256)": "infinite",
						"withdraw()": "infinite"
					}
				},
				"methodIdentifiers": {
					"add(uint8,uint256)": "1b54ac80",
					"buy(uint8,uint256)": "62f791c0",
					"cashRegister(uint256)": "754a5a51",
					"withdraw()": "3ccfd60b"
				}
			},
			"storageLayout": {
				"storage": [
					{
						"astId": 32,
						"contract": "src/GroceryShop.sol:GroceryShop",
						"label": "breadCount",
						"offset": 0,
						"slot": "0",
						"type": "t_uint256"
					},
					{
						"astId": 34,
						"contract": "src/GroceryShop.sol:GroceryShop",
						"label": "eggCount",
						"offset": 0,
						"slot": "1",
						"type": "t_uint256"
					},
					{
						"astId": 36,
						"contract": "src/GroceryShop.sol:GroceryShop",
						"label": "jamCount",
						"offset": 0,
						"slot": "2",
						"type": "t_uint256"
					},
					{
						"astId": 38,
						"contract": "src/GroceryShop.sol:GroceryShop",
						"label": "purchaseId",
						"offset": 0,
						"slot": "3",
						"type": "t_uint256"
					},
					{
						"astId": 40,
						"contract": "src/GroceryShop.sol:GroceryShop",
						"label": "owner",
						"offset": 0,
						"slot": "4",
						"type": "t_address"
					},
					{
						"astId": 45,
						"contract": "src/GroceryShop.sol:GroceryShop",
						"label": "purchased",
						"offset": 0,
						"slot": "5",
						"type": "t_mapping(t_uint256,t_struct(CashRegister)30_storage)"
					}
				],
				"types": {
					"t_address": {
						"encoding": "inplace",
						"label": "address",
						"numberOfBytes": "20"
					},
					"t_enum(GroceryType)6": {
						"encoding": "inplace",
						"label": "enum GroceryShop.GroceryType",
						"numberOfBytes": "1"
					},
					"t_mapping(t_uint256,t_struct(CashRegister)30_storage)": {
						"encoding": "mapping",
						"key": "t_uint256",
						"label": "mapping(uint256 => struct GroceryShop.CashRegister)",
						"numberOfBytes": "32",
						"value": "t_struct(CashRegister)30_storage"
					},
					"t_struct(CashRegister)30_storage": {
						"encoding": "inplace",
						"label": "struct GroceryShop.CashRegister",
						"members": [
							{
								"astId": 24,
								"contract": "src/GroceryShop.sol:GroceryShop",
								"label": "buyer",
								"offset": 0,
								"slot": "0",
								"type": "t_address"
							},
							{
								"astId": 27,
								"contract": "src/GroceryShop.sol:GroceryShop",
								"label": "item",
								"offset": 20,
								"slot": "0",
								"type": "t_enum(GroceryType)6"
							},
							{
								"astId": 29,
								"contract": "src/GroceryShop.sol:GroceryShop",
								"label": "count",
								"offset": 0,
								"slot": "1",
								"type": "t_uint256"
							}
						],
						"numberOfBytes": "64"
					},
					"t_uint256": {
						"encoding": "inplace",
						"label": "uint256",
						"numberOfBytes": "32"
					}
				}
			},
			"userdoc": {
				"kind": "user",
				"methods": {},
				"version": 1
			}
		}
	}
}